{
  "_format": "hh-sol-artifact-1",
  "contractName": "LandAssetManager",
  "sourceName": "contracts/LandAssetManager.sol",
  "abi": [
    {
      "inputs": [
        {
          "internalType": "string",
          "name": "uri",
          "type": "string"
        },
        {
          "internalType": "address",
          "name": "_treasuryWallet",
          "type": "address"
        },
        {
          "internalType": "address",
          "name": "auth",
          "type": "address"
        }
      ],
      "stateMutability": "nonpayable",
      "type": "constructor"
    },
    {
      "inputs": [
        {
          "internalType": "address",
          "name": "sender",
          "type": "address"
        },
        {
          "internalType": "uint256",
          "name": "balance",
          "type": "uint256"
        },
        {
          "internalType": "uint256",
          "name": "needed",
          "type": "uint256"
        },
        {
          "internalType": "uint256",
          "name": "tokenId",
          "type": "uint256"
        }
      ],
      "name": "ERC1155InsufficientBalance",
      "type": "error"
    },
    {
      "inputs": [
        {
          "internalType": "address",
          "name": "approver",
          "type": "address"
        }
      ],
      "name": "ERC1155InvalidApprover",
      "type": "error"
    },
    {
      "inputs": [
        {
          "internalType": "uint256",
          "name": "idsLength",
          "type": "uint256"
        },
        {
          "internalType": "uint256",
          "name": "valuesLength",
          "type": "uint256"
        }
      ],
      "name": "ERC1155InvalidArrayLength",
      "type": "error"
    },
    {
      "inputs": [
        {
          "internalType": "address",
          "name": "operator",
          "type": "address"
        }
      ],
      "name": "ERC1155InvalidOperator",
      "type": "error"
    },
    {
      "inputs": [
        {
          "internalType": "address",
          "name": "receiver",
          "type": "address"
        }
      ],
      "name": "ERC1155InvalidReceiver",
      "type": "error"
    },
    {
      "inputs": [
        {
          "internalType": "address",
          "name": "sender",
          "type": "address"
        }
      ],
      "name": "ERC1155InvalidSender",
      "type": "error"
    },
    {
      "inputs": [
        {
          "internalType": "address",
          "name": "operator",
          "type": "address"
        },
        {
          "internalType": "address",
          "name": "owner",
          "type": "address"
        }
      ],
      "name": "ERC1155MissingApprovalForAll",
      "type": "error"
    },
    {
      "anonymous": false,
      "inputs": [
        {
          "indexed": true,
          "internalType": "address",
          "name": "account",
          "type": "address"
        },
        {
          "indexed": true,
          "internalType": "address",
          "name": "operator",
          "type": "address"
        },
        {
          "indexed": false,
          "internalType": "bool",
          "name": "approved",
          "type": "bool"
        }
      ],
      "name": "ApprovalForAll",
      "type": "event"
    },
    {
      "anonymous": false,
      "inputs": [
        {
          "indexed": false,
          "internalType": "uint256[]",
          "name": "parcelIds",
          "type": "uint256[]"
        },
        {
          "indexed": false,
          "internalType": "uint256[]",
          "name": "parcelAmount",
          "type": "uint256[]"
        },
        {
          "indexed": false,
          "internalType": "uint256",
          "name": "timestamp",
          "type": "uint256"
        }
      ],
      "name": "PlotCreated",
      "type": "event"
    },
    {
      "anonymous": false,
      "inputs": [
        {
          "indexed": true,
          "internalType": "uint256",
          "name": "tokenId",
          "type": "uint256"
        },
        {
          "indexed": false,
          "internalType": "string",
          "name": "blockInfo",
          "type": "string"
        },
        {
          "indexed": false,
          "internalType": "string",
          "name": "parcelInfo",
          "type": "string"
        },
        {
          "indexed": false,
          "internalType": "uint256",
          "name": "totalSupply",
          "type": "uint256"
        }
      ],
      "name": "TokenCreated",
      "type": "event"
    },
    {
      "anonymous": false,
      "inputs": [
        {
          "indexed": true,
          "internalType": "uint256",
          "name": "requestId",
          "type": "uint256"
        },
        {
          "indexed": true,
          "internalType": "address",
          "name": "approver",
          "type": "address"
        },
        {
          "indexed": false,
          "internalType": "uint256",
          "name": "role",
          "type": "uint256"
        },
        {
          "indexed": false,
          "internalType": "bool",
          "name": "isFullyApproved",
          "type": "bool"
        },
        {
          "indexed": false,
          "internalType": "uint256",
          "name": "timestamp",
          "type": "uint256"
        }
      ],
      "name": "TransferApproved",
      "type": "event"
    },
    {
      "anonymous": false,
      "inputs": [
        {
          "indexed": true,
          "internalType": "address",
          "name": "operator",
          "type": "address"
        },
        {
          "indexed": true,
          "internalType": "address",
          "name": "from",
          "type": "address"
        },
        {
          "indexed": true,
          "internalType": "address",
          "name": "to",
          "type": "address"
        },
        {
          "indexed": false,
          "internalType": "uint256[]",
          "name": "ids",
          "type": "uint256[]"
        },
        {
          "indexed": false,
          "internalType": "uint256[]",
          "name": "values",
          "type": "uint256[]"
        }
      ],
      "name": "TransferBatch",
      "type": "event"
    },
    {
      "anonymous": false,
      "inputs": [
        {
          "indexed": true,
          "internalType": "uint256",
          "name": "requestId",
          "type": "uint256"
        },
        {
          "indexed": true,
          "internalType": "address",
          "name": "from",
          "type": "address"
        },
        {
          "indexed": true,
          "internalType": "address",
          "name": "to",
          "type": "address"
        },
        {
          "indexed": false,
          "internalType": "uint256",
          "name": "tokenId",
          "type": "uint256"
        },
        {
          "indexed": false,
          "internalType": "uint256",
          "name": "amount",
          "type": "uint256"
        }
      ],
      "name": "TransferExecuted",
      "type": "event"
    },
    {
      "anonymous": false,
      "inputs": [
        {
          "indexed": true,
          "internalType": "uint256",
          "name": "requestId",
          "type": "uint256"
        },
        {
          "indexed": true,
          "internalType": "address",
          "name": "from",
          "type": "address"
        },
        {
          "indexed": true,
          "internalType": "address",
          "name": "to",
          "type": "address"
        },
        {
          "indexed": false,
          "internalType": "uint256",
          "name": "tokenId",
          "type": "uint256"
        },
        {
          "indexed": false,
          "internalType": "uint256",
          "name": "amount",
          "type": "uint256"
        },
        {
          "indexed": false,
          "internalType": "bool",
          "name": "isPlotTransfer",
          "type": "bool"
        },
        {
          "indexed": false,
          "internalType": "uint256",
          "name": "plotId",
          "type": "uint256"
        }
      ],
      "name": "TransferRequestCreated",
      "type": "event"
    },
    {
      "anonymous": false,
      "inputs": [
        {
          "indexed": true,
          "internalType": "address",
          "name": "operator",
          "type": "address"
        },
        {
          "indexed": true,
          "internalType": "address",
          "name": "from",
          "type": "address"
        },
        {
          "indexed": true,
          "internalType": "address",
          "name": "to",
          "type": "address"
        },
        {
          "indexed": false,
          "internalType": "uint256",
          "name": "id",
          "type": "uint256"
        },
        {
          "indexed": false,
          "internalType": "uint256",
          "name": "value",
          "type": "uint256"
        }
      ],
      "name": "TransferSingle",
      "type": "event"
    },
    {
      "anonymous": false,
      "inputs": [
        {
          "indexed": false,
          "internalType": "string",
          "name": "value",
          "type": "string"
        },
        {
          "indexed": true,
          "internalType": "uint256",
          "name": "id",
          "type": "uint256"
        }
      ],
      "name": "URI",
      "type": "event"
    },
    {
      "inputs": [
        {
          "internalType": "address",
          "name": "account",
          "type": "address"
        },
        {
          "internalType": "uint256",
          "name": "id",
          "type": "uint256"
        }
      ],
      "name": "balanceOf",
      "outputs": [
        {
          "internalType": "uint256",
          "name": "",
          "type": "uint256"
        }
      ],
      "stateMutability": "view",
      "type": "function"
    },
    {
      "inputs": [
        {
          "internalType": "address[]",
          "name": "accounts",
          "type": "address[]"
        },
        {
          "internalType": "uint256[]",
          "name": "ids",
          "type": "uint256[]"
        }
      ],
      "name": "balanceOfBatch",
      "outputs": [
        {
          "internalType": "uint256[]",
          "name": "",
          "type": "uint256[]"
        }
      ],
      "stateMutability": "view",
      "type": "function"
    },
    {
      "inputs": [
        {
          "internalType": "string",
          "name": "blockInfo",
          "type": "string"
        },
        {
          "internalType": "string",
          "name": "parcelInfo",
          "type": "string"
        },
        {
          "internalType": "string",
          "name": "tokenURI",
          "type": "string"
        },
        {
          "internalType": "uint256",
          "name": "totalSupply",
          "type": "uint256"
        }
      ],
      "name": "createBlockParcelToken",
      "outputs": [
        {
          "internalType": "uint256",
          "name": "",
          "type": "uint256"
        }
      ],
      "stateMutability": "nonpayable",
      "type": "function"
    },
    {
      "inputs": [
        {
          "internalType": "address",
          "name": "signerWallet",
          "type": "address"
        },
        {
          "internalType": "uint256",
          "name": "requestId",
          "type": "uint256"
        },
        {
          "internalType": "uint256",
          "name": "_role",
          "type": "uint256"
        }
      ],
      "name": "delegateApproveTransfer",
      "outputs": [],
      "stateMutability": "nonpayable",
      "type": "function"
    },
    {
      "inputs": [
        {
          "internalType": "uint256",
          "name": "requestId",
          "type": "uint256"
        }
      ],
      "name": "finalizeParcelTransfer",
      "outputs": [],
      "stateMutability": "nonpayable",
      "type": "function"
    },
    {
      "inputs": [
        {
          "internalType": "uint256",
          "name": "requestId",
          "type": "uint256"
        }
      ],
      "name": "finalizePlotTransfer",
      "outputs": [],
      "stateMutability": "nonpayable",
      "type": "function"
    },
    {
      "inputs": [
        {
          "internalType": "uint256",
          "name": "_tokenId",
          "type": "uint256"
        }
      ],
      "name": "getBlockParcelTokenURI",
      "outputs": [
        {
          "internalType": "string",
          "name": "",
          "type": "string"
        }
      ],
      "stateMutability": "view",
      "type": "function"
    },
    {
      "inputs": [],
      "name": "getListOfTotalPlots",
      "outputs": [
        {
          "internalType": "address[]",
          "name": "",
          "type": "address[]"
        }
      ],
      "stateMutability": "view",
      "type": "function"
    },
    {
      "inputs": [
        {
          "internalType": "uint256",
          "name": "_plotId",
          "type": "uint256"
        },
        {
          "internalType": "address",
          "name": "_user",
          "type": "address"
        }
      ],
      "name": "getOwnershipPercentage",
      "outputs": [
        {
          "internalType": "uint256",
          "name": "",
          "type": "uint256"
        }
      ],
      "stateMutability": "view",
      "type": "function"
    },
    {
      "inputs": [
        {
          "internalType": "uint256",
          "name": "_plotId",
          "type": "uint256"
        }
      ],
      "name": "getPlotAccountInfo",
      "outputs": [
        {
          "components": [
            {
              "internalType": "address",
              "name": "plotAccount",
              "type": "address"
            },
            {
              "internalType": "uint256[]",
              "name": "parcelIds",
              "type": "uint256[]"
            },
            {
              "internalType": "uint256[]",
              "name": "parcelAmounts",
              "type": "uint256[]"
            }
          ],
          "internalType": "struct LandAssetManager.PlotInfo",
          "name": "",
          "type": "tuple"
        }
      ],
      "stateMutability": "view",
      "type": "function"
    },
    {
      "inputs": [
        {
          "internalType": "uint256",
          "name": "_plotId",
          "type": "uint256"
        },
        {
          "internalType": "uint256",
          "name": "_parcelId",
          "type": "uint256"
        }
      ],
      "name": "getPlotAccountParcelShareholders",
      "outputs": [
        {
          "internalType": "address[]",
          "name": "",
          "type": "address[]"
        }
      ],
      "stateMutability": "view",
      "type": "function"
    },
    {
      "inputs": [
        {
          "internalType": "uint256",
          "name": "_plotId",
          "type": "uint256"
        },
        {
          "internalType": "uint256",
          "name": "_parcelId",
          "type": "uint256"
        }
      ],
      "name": "getPlotAccountParcelTotalShares",
      "outputs": [
        {
          "internalType": "uint256",
          "name": "",
          "type": "uint256"
        }
      ],
      "stateMutability": "view",
      "type": "function"
    },
    {
      "inputs": [
        {
          "internalType": "uint256",
          "name": "_plotId",
          "type": "uint256"
        },
        {
          "internalType": "address",
          "name": "_user",
          "type": "address"
        },
        {
          "internalType": "uint256",
          "name": "_parcel",
          "type": "uint256"
        }
      ],
      "name": "getPlotAccountUserParcels",
      "outputs": [
        {
          "internalType": "uint256[]",
          "name": "",
          "type": "uint256[]"
        }
      ],
      "stateMutability": "view",
      "type": "function"
    },
    {
      "inputs": [
        {
          "internalType": "uint256",
          "name": "_plotId",
          "type": "uint256"
        },
        {
          "internalType": "uint256",
          "name": "_parcelId",
          "type": "uint256"
        },
        {
          "internalType": "address",
          "name": "_user",
          "type": "address"
        }
      ],
      "name": "getPlotAccountUserShares",
      "outputs": [
        {
          "internalType": "uint256",
          "name": "",
          "type": "uint256"
        }
      ],
      "stateMutability": "view",
      "type": "function"
    },
    {
      "inputs": [],
      "name": "getPlotAndTokenIdInfo",
      "outputs": [
        {
          "internalType": "uint256",
          "name": "",
          "type": "uint256"
        },
        {
          "internalType": "uint256",
          "name": "",
          "type": "uint256"
        }
      ],
      "stateMutability": "view",
      "type": "function"
    },
    {
      "inputs": [
        {
          "internalType": "address",
          "name": "account",
          "type": "address"
        },
        {
          "internalType": "address",
          "name": "operator",
          "type": "address"
        }
      ],
      "name": "isApprovedForAll",
      "outputs": [
        {
          "internalType": "bool",
          "name": "",
          "type": "bool"
        }
      ],
      "stateMutability": "view",
      "type": "function"
    },
    {
      "inputs": [
        {
          "internalType": "address",
          "name": "",
          "type": "address"
        }
      ],
      "name": "isPlotRegistered",
      "outputs": [
        {
          "internalType": "bool",
          "name": "",
          "type": "bool"
        }
      ],
      "stateMutability": "view",
      "type": "function"
    },
    {
      "inputs": [
        {
          "internalType": "uint256",
          "name": "",
          "type": "uint256"
        }
      ],
      "name": "landInfo",
      "outputs": [
        {
          "internalType": "string",
          "name": "blockInfo",
          "type": "string"
        },
        {
          "internalType": "string",
          "name": "parcelInfo",
          "type": "string"
        },
        {
          "internalType": "string",
          "name": "blockParcelTokenURI",
          "type": "string"
        },
        {
          "internalType": "uint256",
          "name": "totalSupply",
          "type": "uint256"
        }
      ],
      "stateMutability": "view",
      "type": "function"
    },
    {
      "inputs": [
        {
          "internalType": "uint256",
          "name": "",
          "type": "uint256"
        }
      ],
      "name": "listOfTotalPlots",
      "outputs": [
        {
          "internalType": "address",
          "name": "",
          "type": "address"
        }
      ],
      "stateMutability": "view",
      "type": "function"
    },
    {
      "inputs": [],
      "name": "nextRequestId",
      "outputs": [
        {
          "internalType": "uint256",
          "name": "",
          "type": "uint256"
        }
      ],
      "stateMutability": "view",
      "type": "function"
    },
    {
      "inputs": [
        {
          "internalType": "address",
          "name": "operator",
          "type": "address"
        },
        {
          "internalType": "address",
          "name": "from",
          "type": "address"
        },
        {
          "internalType": "uint256",
          "name": "tokenId",
          "type": "uint256"
        },
        {
          "internalType": "bytes",
          "name": "data",
          "type": "bytes"
        }
      ],
      "name": "onERC721Received",
      "outputs": [
        {
          "internalType": "bytes4",
          "name": "",
          "type": "bytes4"
        }
      ],
      "stateMutability": "pure",
      "type": "function"
    },
    {
      "inputs": [
        {
          "internalType": "uint256",
          "name": "",
          "type": "uint256"
        }
      ],
      "name": "plotAccountInfo",
      "outputs": [
        {
          "internalType": "address",
          "name": "plotAccount",
          "type": "address"
        }
      ],
      "stateMutability": "view",
      "type": "function"
    },
    {
      "inputs": [
        {
          "internalType": "uint256",
          "name": "_plotId",
          "type": "uint256"
        }
      ],
      "name": "plotFinalize",
      "outputs": [],
      "stateMutability": "nonpayable",
      "type": "function"
    },
    {
      "inputs": [
        {
          "internalType": "uint256[]",
          "name": "parcelIds",
          "type": "uint256[]"
        },
        {
          "internalType": "uint256[]",
          "name": "parcelAmounts",
          "type": "uint256[]"
        }
      ],
      "name": "plotInitiate",
      "outputs": [],
      "stateMutability": "nonpayable",
      "type": "function"
    },
    {
      "inputs": [],
      "name": "plotNft",
      "outputs": [
        {
          "internalType": "contract IERC721",
          "name": "",
          "type": "address"
        }
      ],
      "stateMutability": "view",
      "type": "function"
    },
    {
      "inputs": [],
      "name": "plotPassAddress",
      "outputs": [
        {
          "internalType": "address",
          "name": "",
          "type": "address"
        }
      ],
      "stateMutability": "view",
      "type": "function"
    },
    {
      "inputs": [],
      "name": "plotRegistry",
      "outputs": [
        {
          "internalType": "contract IPlotRegistry",
          "name": "",
          "type": "address"
        }
      ],
      "stateMutability": "view",
      "type": "function"
    },
    {
      "inputs": [
        {
          "internalType": "uint256",
          "name": "_parcelId",
          "type": "uint256"
        },
        {
          "internalType": "uint256",
          "name": "parcelAmount",
          "type": "uint256"
        },
        {
          "internalType": "address",
          "name": "to",
          "type": "address"
        },
        {
          "internalType": "uint256",
          "name": "_plotId",
          "type": "uint256"
        },
        {
          "internalType": "bool",
          "name": "isPlotTransfer",
          "type": "bool"
        }
      ],
      "name": "requestForParcelTransfer",
      "outputs": [],
      "stateMutability": "nonpayable",
      "type": "function"
    },
    {
      "inputs": [
        {
          "internalType": "uint256",
          "name": "_plotId",
          "type": "uint256"
        },
        {
          "internalType": "address",
          "name": "to",
          "type": "address"
        }
      ],
      "name": "requestForWholePlotTransfer",
      "outputs": [],
      "stateMutability": "nonpayable",
      "type": "function"
    },
    {
      "inputs": [
        {
          "internalType": "uint256",
          "name": "requestId",
          "type": "uint256"
        }
      ],
      "name": "requestStatus",
      "outputs": [
        {
          "components": [
            {
              "internalType": "address",
              "name": "from",
              "type": "address"
            },
            {
              "internalType": "address",
              "name": "to",
              "type": "address"
            },
            {
              "internalType": "uint256",
              "name": "parcelId",
              "type": "uint256"
            },
            {
              "internalType": "uint256",
              "name": "parcelAmount",
              "type": "uint256"
            },
            {
              "internalType": "bool",
              "name": "isPlotTransfer",
              "type": "bool"
            },
            {
              "internalType": "uint256",
              "name": "plotId",
              "type": "uint256"
            },
            {
              "internalType": "uint256",
              "name": "timestamp",
              "type": "uint256"
            },
            {
              "internalType": "enum LandAssetManager.TransferStatus",
              "name": "status",
              "type": "uint8"
            },
            {
              "internalType": "bool",
              "name": "landAuthorityApproved",
              "type": "bool"
            },
            {
              "internalType": "bool",
              "name": "lawyerApproved",
              "type": "bool"
            },
            {
              "internalType": "bool",
              "name": "bankApproved",
              "type": "bool"
            }
          ],
          "internalType": "struct LandAssetManager.TransferRequest",
          "name": "",
          "type": "tuple"
        }
      ],
      "stateMutability": "view",
      "type": "function"
    },
    {
      "inputs": [
        {
          "internalType": "address",
          "name": "from",
          "type": "address"
        },
        {
          "internalType": "address",
          "name": "to",
          "type": "address"
        },
        {
          "internalType": "uint256[]",
          "name": "ids",
          "type": "uint256[]"
        },
        {
          "internalType": "uint256[]",
          "name": "values",
          "type": "uint256[]"
        },
        {
          "internalType": "bytes",
          "name": "data",
          "type": "bytes"
        }
      ],
      "name": "safeBatchTransferFrom",
      "outputs": [],
      "stateMutability": "nonpayable",
      "type": "function"
    },
    {
      "inputs": [
        {
          "internalType": "address",
          "name": "from",
          "type": "address"
        },
        {
          "internalType": "address",
          "name": "to",
          "type": "address"
        },
        {
          "internalType": "uint256",
          "name": "id",
          "type": "uint256"
        },
        {
          "internalType": "uint256",
          "name": "value",
          "type": "uint256"
        },
        {
          "internalType": "bytes",
          "name": "data",
          "type": "bytes"
        }
      ],
      "name": "safeTransferFrom",
      "outputs": [],
      "stateMutability": "nonpayable",
      "type": "function"
    },
    {
      "inputs": [
        {
          "internalType": "address",
          "name": "operator",
          "type": "address"
        },
        {
          "internalType": "bool",
          "name": "approved",
          "type": "bool"
        }
      ],
      "name": "setApprovalForAll",
      "outputs": [],
      "stateMutability": "nonpayable",
      "type": "function"
    },
    {
      "inputs": [
        {
          "internalType": "address",
          "name": "_plotRegistry",
          "type": "address"
        }
      ],
      "name": "setPlotRegistryContract",
      "outputs": [],
      "stateMutability": "nonpayable",
      "type": "function"
    },
    {
      "inputs": [
        {
          "internalType": "address",
          "name": "_addr",
          "type": "address"
        }
      ],
      "name": "setplotOwnershipContract",
      "outputs": [],
      "stateMutability": "nonpayable",
      "type": "function"
    },
    {
      "inputs": [
        {
          "internalType": "bytes4",
          "name": "interfaceId",
          "type": "bytes4"
        }
      ],
      "name": "supportsInterface",
      "outputs": [
        {
          "internalType": "bool",
          "name": "",
          "type": "bool"
        }
      ],
      "stateMutability": "view",
      "type": "function"
    },
    {
      "inputs": [],
      "name": "treasuryWallet",
      "outputs": [
        {
          "internalType": "address",
          "name": "",
          "type": "address"
        }
      ],
      "stateMutability": "view",
      "type": "function"
    },
    {
      "inputs": [
        {
          "internalType": "uint256",
          "name": "",
          "type": "uint256"
        }
      ],
      "name": "uri",
      "outputs": [
        {
          "internalType": "string",
          "name": "",
          "type": "string"
        }
      ],
      "stateMutability": "view",
      "type": "function"
    }
  ],
  "bytecode": "0x608060405260016003556001600455600160055534801561001f57600080fd5b506040516141ce3803806141ce83398101604081905261003e91610124565b82610048816100e2565b506001600160a01b0382166100a35760405162461bcd60e51b815260206004820152601760248201527f496e76616c69642074726561737572792077616c6c6574000000000000000000604482015260640160405180910390fd5b600680546001600160a01b039384166001600160a01b031991821617909155600c80549290931691811682179092556008805490921617905550610358565b60026100ee8282610299565b5050565b634e487b7160e01b600052604160045260246000fd5b80516001600160a01b038116811461011f57600080fd5b919050565b60008060006060848603121561013957600080fd5b83516001600160401b038082111561015057600080fd5b818601915086601f83011261016457600080fd5b815181811115610176576101766100f2565b604051601f8201601f19908116603f0116810190838211818310171561019e5761019e6100f2565b816040528281526020935089848487010111156101ba57600080fd5b600091505b828210156101dc57848201840151818301850152908301906101bf565b60008484830101528097505050506101f5818701610108565b9350505061020560408501610108565b90509250925092565b600181811c9082168061022257607f821691505b60208210810361024257634e487b7160e01b600052602260045260246000fd5b50919050565b601f821115610294576000816000526020600020601f850160051c810160208610156102715750805b601f850160051c820191505b818110156102905782815560010161027d565b5050505b505050565b81516001600160401b038111156102b2576102b26100f2565b6102c6816102c0845461020e565b84610248565b602080601f8311600181146102fb57600084156102e35750858301515b600019600386901b1c1916600185901b178555610290565b600085815260208120601f198616915b8281101561032a5788860151825594840194600190910190840161030b565b50858210156103485787850151600019600388901b60f8161c191681555b5050505050600190811b01905550565b613e67806103676000396000f3fe608060405234801561001057600080fd5b50600436106102315760003560e01c806378fe889011610130578063bdcb0314116100b8578063c572aad01161007c578063c572aad014610561578063cea7084414610574578063e985e9c514610587578063f242432a1461059a578063fbf536dd146105ad57600080fd5b8063bdcb0314146104e5578063bf5f71b8146104f8578063c2d4769d1461050b578063c3edcdd11461052b578063c5725f4b1461054e57600080fd5b8063a31a3a43116100ff578063a31a3a4314610486578063a56eb79014610499578063a738a285146104ac578063a7994b58146104bf578063a900e236146104d257600080fd5b806378fe8890146104205780637b3b9673146104435780638636540914610456578063a22cb4651461047357600080fd5b80632eb2c2d6116101be5780634e1273f4116101825780634e1273f4146103be5780635d7766bb146103de5780636a4895ff146103f15780636a84a985146104045780636fbba4d91461040d57600080fd5b80632eb2c2d61461035f578063360f758214610372578063399db4d41461038557806340155f57146103985780634626402b146103ab57600080fd5b80631379cf5c116102055780631379cf5c146102b4578063150b7a02146102c9578063193e9ecb146103015780631a313202146103145780631c1118db1461033457600080fd5b8062fdd58e1461023657806301ffc9a71461025c5780630d1dfd081461027f5780630e89341c14610294575b600080fd5b610249610244366004612fa4565b6105d6565b6040519081526020015b60405180910390f35b61026f61026a366004612fe6565b6105fe565b6040519015158152602001610253565b610287610609565b604051610253919061300a565b6102a76102a2366004613057565b61066b565b60405161025391906130c0565b6102c76102c2366004613057565b6106ff565b005b6102e86102d73660046130d3565b630a85bd0160e11b95945050505050565b6040516001600160e01b03199091168152602001610253565b6102c761030f366004613171565b610a67565b610327610322366004613057565b610b1f565b60405161025391906131c6565b600754610347906001600160a01b031681565b6040516001600160a01b039091168152602001610253565b6102c761036d3660046133b7565b610cc0565b610249610380366004613464565b610d27565b6102c761039336600461349d565b610db3565b6102c76103a6366004613171565b610fd0565b600654610347906001600160a01b031681565b6103d16103cc3660046134d2565b611092565b60405161025391906135cf565b600b54610347906001600160a01b031681565b6102c76103ff366004613057565b61115e565b61024960055481565b6102a761041b366004613057565b611343565b61026f61042e366004613171565b600e6020526000908152604090205460ff1681565b6103d16104513660046135e2565b611363565b61045e6113ec565b60408051928352602083019190915201610253565b6102c7610481366004613628565b611493565b610347610494366004613057565b6114a2565b6102c76104a7366004613057565b6114cc565b6102876104ba366004613661565b611884565b6102c76104cd366004613683565b61190d565b600a54610347906001600160a01b031681565b6102496104f3366004613661565b611b70565b6102496105063660046136d9565b611bec565b61051e610519366004613057565b611c2c565b60405161025391906136fe565b61053e610539366004613057565b611d36565b6040516102539493929190613749565b6102c761055c3660046136d9565b611ef6565b6102c761056f366004613794565b612292565b6102496105823660046137e0565b6125cc565b61026f61059536600461386f565b612802565b6102c76105a836600461389d565b612830565b6103476105bb366004613057565b6011602052600090815260409020546001600160a01b031681565b6000818152602081815260408083206001600160a01b03861684529091529020545b92915050565b60006105f88261288f565b6060600980548060200260200160405190810160405280929190818152602001828054801561066157602002820191906000526020600020905b81546001600160a01b03168152600190910190602001808311610643575b5050505050905090565b60606002805461067a90613905565b80601f01602080910402602001604051908101604052809291908181526020018280546106a690613905565b80156106f35780601f106106c8576101008083540402835291602001916106f3565b820191906000526020600020905b8154815290600101906020018083116106d657829003601f168201915b50505050509050919050565b600c546001600160a01b03166324d7806c336040516001600160e01b031960e084901b1681526001600160a01b039091166004820152602401602060405180830381865afa158015610755573d6000803e3d6000fd5b505050506040513d601f19601f82011682018060405250810190610779919061393f565b61079e5760405162461bcd60e51b81526004016107959061395c565b60405180910390fd5b6000818152601160209081526040808320546001600160a01b0316808452600e9092529091205460ff161561080e5760405162461bcd60e51b8152602060048201526016602482015275141b1bdd08185b1c9958591e48199a5b985b1a5e995960521b6044820152606401610795565b6001600160a01b038181166000818152600e602052604090819020805460ff191660011790556008549051632b2e05c160e01b81529216600483015290632b2e05c190602401600060405180830381600087803b15801561086e57600080fd5b505af1158015610882573d6000803e3d6000fd5b5050600b546001600160a01b031691506323b872dd905030336040516001600160e01b031960e085901b1681526001600160a01b0392831660048201529116602482015260448101859052606401600060405180830381600087803b1580156108ea57600080fd5b505af11580156108fe573d6000803e3d6000fd5b505050506109db61090c3390565b600084815260116020908152604091829020600101805483518184028101840190945280845286939283018282801561096457602002820191906000526020600020905b815481526020019060010190808311610950575b505050600088815260116020908152604091829020600201805483518184028101840190945280845292945092508301828280156109c157602002820191906000526020600020905b8154815260200190600101908083116109ad575b505050505060405180602001604052806000815250610cc0565b600082815260116020526040908190209051632187c29560e11b81526001600160a01b0383169163430f852a91610a1f9160018101916002909101906004016139c9565b6020604051808303816000875af1158015610a3e573d6000803e3d6000fd5b505050506040513d601f19601f82011682018060405250810190610a6291906139ee565b505050565b600c546001600160a01b03166324d7806c336040516001600160e01b031960e084901b1681526001600160a01b039091166004820152602401602060405180830381865afa158015610abd573d6000803e3d6000fd5b505050506040513d601f19601f82011682018060405250810190610ae1919061393f565b610afd5760405162461bcd60e51b81526004016107959061395c565b600a80546001600160a01b0319166001600160a01b0392909216919091179055565b6040805161016081018252600080825260208201819052918101829052606081018290526080810182905260a0810182905260c0810182905260e08101829052610100810182905261012081018290526101408101919091526000828152601060205260409020546001600160a01b03163314610bde5760405162461bcd60e51b815260206004820152601d60248201527f4e6f74207468652073656e646572206f662074686520726571756573740000006044820152606401610795565b60008281526010602090815260409182902082516101608101845281546001600160a01b039081168252600183015416928101929092526002810154928201929092526003820154606082015260048083015460ff90811615156080840152600584015460a0840152600684015460c0840152600784015492939260e0850192911690811115610c7057610c7061318e565b6004811115610c8157610c8161318e565b81526007919091015460ff6101008204811615156020840152620100008204811615156040840152630100000090910416151560609091015292915050565b336001600160a01b0386168114801590610ce15750610cdf8682612802565b155b15610d125760405163711bec9160e11b81526001600160a01b03808316600483015287166024820152604401610795565b610d1f86868686866128df565b505050505050565b60008381526011602052604080822054905163835dc40b60e01b8152600481018590526001600160a01b03848116602483015290911690819063835dc40b90604401602060405180830381865afa158015610d86573d6000803e3d6000fd5b505050506040513d601f19601f82011682018060405250810190610daa91906139ee565b95945050505050565b600081600103610e94576000838152601060205260409020600701805461ff001916610100179081905562010000900460ff168015610e0a57506000838152601060205260409020600701546301000000900460ff165b15610e3857600083815260106020526040902060070180546002919060ff19166001835b0217905550600190505b836001600160a01b0316837faf49c9f2c598a27f6918ca87eb8058baac5f2f871de5ef13b001f58545e28060848442604051610e87939291909283529015156020830152604082015260600190565b60405180910390a3610fca565b81600203610f12576000838152601060205260409020600701805463ff00000019166301000000179081905562010000900460ff168015610e0a5750600083815260106020526040902060070154610100900460ff1615610e3857600083815260106020526040902060070180546002919060ff1916600183610e2e565b81600303610f8f576000838152601060205260409020600701805462ff000019166201000017908190556301000000900460ff168015610e0a5750600083815260106020526040902060070154610100900460ff1615610e3857600083815260106020526040902060070180546002919060ff1916600183610e2e565b60405162461bcd60e51b815260206004820152601060248201526f4e6f7420616e20417574686f7269747960801b6044820152606401610795565b50505050565b600c546001600160a01b03166324d7806c336040516001600160e01b031960e084901b1681526001600160a01b039091166004820152602401602060405180830381865afa158015611026573d6000803e3d6000fd5b505050506040513d601f19601f8201168201806040525081019061104a919061393f565b6110665760405162461bcd60e51b81526004016107959061395c565b600b80546001600160a01b039092166001600160a01b0319928316811790915560078054909216179055565b606081518351146110c35781518351604051635b05999160e01b815260048101929092526024820152604401610795565b600083516001600160401b038111156110de576110de613270565b604051908082528060200260200182016040528015611107578160200160208202803683370190505b50905060005b845181101561115657602080820286010151611131906020808402870101516105d6565b82828151811061114357611143613a07565b602090810291909101015260010161110d565b509392505050565b60008181526010602052604090206002600782015460ff1660048111156111875761118761318e565b146111cb5760405162461bcd60e51b815260206004820152601460248201527314995c5d595cdd081b9bdd08185c1c1c9bdd995960621b6044820152606401610795565b600481015460ff1615611293576005810154600090815260116020526040908190205482546001840154600285015460038601549451632f80af0f60e21b81526001600160a01b039384166004820152918316602483015260448201526064810193909352169063be02bc3c906084016020604051808303816000875af115801561125a573d6000803e3d6000fd5b505050506040513d601f19601f8201168201806040525081019061127e919061393f565b5060078101805460ff191660041790556112dc565b80546001820154600283015460038401546040805160208101909152600081526112cc946001600160a01b039081169416929190612830565b60078101805460ff191660041790555b60018101548154600283015460038401546040516001600160a01b0394851694939093169286927fc6dd6857b8ac04586ee065e8ee95def9aaebf505c92d9a01be171df17b97798e9261133792918252602082015260400190565b60405180910390a45050565b6000818152600f6020526040902060020180546060919061067a90613905565b600083815260116020526040908190205490516363319d8d60e01b81526001600160a01b03848116600483015260248201849052606092169081906363319d8d90604401600060405180830381865afa1580156113c4573d6000803e3d6000fd5b505050506040513d6000823e601f3d908101601f19168201604052610daa9190810190613a1d565b600c5460009081906001600160a01b03166324d7806c336040516001600160e01b031960e084901b1681526001600160a01b039091166004820152602401602060405180830381865afa158015611447573d6000803e3d6000fd5b505050506040513d601f19601f8201168201806040525081019061146b919061393f565b6114875760405162461bcd60e51b81526004016107959061395c565b50506004546003549091565b61149e338383612946565b5050565b600981815481106114b257600080fd5b6000918252602090912001546001600160a01b0316905081565b60008181526010602052604090819020600b548154925163e985e9c560e01b81526001600160a01b0393841660048201523060248201529192169063e985e9c590604401602060405180830381865afa15801561152d573d6000803e3d6000fd5b505050506040513d601f19601f82011682018060405250810190611551919061393f565b806115d55750600b54600582015460405163020604bf60e21b8152600481019190915230916001600160a01b03169063081812fc90602401602060405180830381865afa1580156115a6573d6000803e3d6000fd5b505050506040513d601f19601f820116820180604052508101906115ca9190613aad565b6001600160a01b0316145b6116345760405162461bcd60e51b815260206004820152602a60248201527f436f6e7472616374206e6f7420617070726f76656420746f207472616e7366656044820152691c881c1b1bdd0813919560b21b6064820152608401610795565b8054600b5460058301546040516331a9108f60e11b815260048101919091526001600160a01b039283169290911690636352211e90602401602060405180830381865afa158015611689573d6000803e3d6000fd5b505050506040513d601f19601f820116820180604052508101906116ad9190613aad565b6001600160a01b0316146116ff5760405162461bcd60e51b8152602060048201526019602482015278139bdd081d1a19481bdddb995c881bd9881d1a19481c1b1bdd603a1b6044820152606401610795565b6002600782015460ff16600481111561171a5761171a61318e565b1461175e5760405162461bcd60e51b815260206004820152601460248201527314995c5d595cdd081b9bdd08185c1c1c9bdd995960621b6044820152606401610795565b6005810154600090815260116020526040908190205482546001840154925163b061ce0560e01b81526001600160a01b0391821660048201529281166024840152169063b061ce05906044016020604051808303816000875af11580156117c9573d6000803e3d6000fd5b505050506040513d601f19601f820116820180604052508101906117ed919061393f565b50600b54815460018301546005840154604051635c46a7ef60e11b81526001600160a01b03938416600482015291831660248301526044820152608060648201526000608482015291169063b88d4fde9060a401600060405180830381600087803b15801561185b57600080fd5b505af115801561186f573d6000803e3d6000fd5b50505050600701805460ff1916600417905550565b600082815260116020526040908190205490516309771aed60e41b8152600481018390526060916001600160a01b0316908190639771aed090602401600060405180830381865afa1580156118dd573d6000803e3d6000fd5b505050506040513d6000823e601f3d908101601f191682016040526119059190810190613aca565b949350505050565b80611940578361191d33876105d6565b101561193b5760405162461bcd60e51b815260040161079590613b58565b61196a565b8361194c838733610d27565b101561196a5760405162461bcd60e51b815260040161079590613b58565b8061197457600091505b6040518061016001604052806119873390565b6001600160a01b03168152602001846001600160a01b031681526020018681526020018581526020018215158152602001838152602001428152602001600160048111156119d7576119d761318e565b815260006020808301829052604080840183905260609384018390526005805484526010835292819020855181546001600160a01b039182166001600160a01b03199182161783559387015160018381018054929093169190951617905590850151600282015592840151600384015560808401516004808501805492151560ff1993841617905560a08601519385019390935560c0850151600685015560e08501516007850180549194909391909216918490811115611a9a57611a9a61318e565b0217905550610100828101516007909201805461012085015161014090950151151563010000000263ff00000019951515620100000262ff0000199515159094029490941662ffff001990911617919091179290921617905560058054906000611b0383613b9a565b90915550506005546000903390611b1c90600190613bb3565b604080518981526020810189905285151591810191909152606081018690527f4595add82735fb552f64748fc031bd6e53c364da7faac5ce52e2ee48c943b7d3906080015b60405180910390a45050505050565b600082815260116020526040808220549051630447b88d60e51b8152600481018490526001600160a01b039091169081906388f711a0906024015b602060405180830381865afa158015611bc8573d6000803e3d6000fd5b505050506040513d601f19601f8201168201806040525081019061190591906139ee565b60008281526011602052604080822054905163145263fd60e31b81526001600160a01b03848116600483015290911690819063a2931fe890602401611bab565b611c59604051806060016040528060006001600160a01b0316815260200160608152602001606081525090565b600082815260116020908152604091829020825160608101845281546001600160a01b0316815260018201805485518186028101860190965280865291949293858101939290830182828015611cce57602002820191906000526020600020905b815481526020019060010190808311611cba575b5050505050815260200160028201805480602002602001604051908101604052809291908181526020018280548015611d2657602002820191906000526020600020905b815481526020019060010190808311611d12575b5050505050815250509050919050565b600f60205260009081526040902080548190611d5190613905565b80601f0160208091040260200160405190810160405280929190818152602001828054611d7d90613905565b8015611dca5780601f10611d9f57610100808354040283529160200191611dca565b820191906000526020600020905b815481529060010190602001808311611dad57829003601f168201915b505050505090806001018054611ddf90613905565b80601f0160208091040260200160405190810160405280929190818152602001828054611e0b90613905565b8015611e585780601f10611e2d57610100808354040283529160200191611e58565b820191906000526020600020905b815481529060010190602001808311611e3b57829003601f168201915b505050505090806002018054611e6d90613905565b80601f0160208091040260200160405190810160405280929190818152602001828054611e9990613905565b8015611ee65780601f10611ebb57610100808354040283529160200191611ee6565b820191906000526020600020905b815481529060010190602001808311611ec957829003601f168201915b5050505050908060030154905084565b33600b546040516331a9108f60e11b8152600481018590526001600160a01b039283169290911690636352211e90602401602060405180830381865afa158015611f44573d6000803e3d6000fd5b505050506040513d601f19601f82011682018060405250810190611f689190613aad565b6001600160a01b031614611fba5760405162461bcd60e51b8152602060048201526019602482015278139bdd081d1a19481bdddb995c881bd9881d1a19481c1b1bdd603a1b6044820152606401610795565b6000828152601160205260409020546001600160a01b031663a2931fe8336040516001600160e01b031960e084901b1681526001600160a01b039091166004820152602401602060405180830381865afa15801561201c573d6000803e3d6000fd5b505050506040513d601f19601f8201168201806040525081019061204091906139ee565b6127101461209f5760405162461bcd60e51b815260206004820152602660248201527f5573657220646f6573206e6f742068617665207468652066756c6c206f776e6560448201526503939b434b8160d51b6064820152608401610795565b6040518061016001604052806120b23390565b6001600160a01b03168152602001826001600160a01b031681526020016000815260200160008152602001600115158152602001838152602001428152602001600160048111156121055761210561318e565b815260006020808301829052604080840183905260609384018390526005805484526010835292819020855181546001600160a01b039182166001600160a01b03199182161783559387015160018381018054929093169190951617905590850151600282015592840151600384015560808401516004808501805492151560ff1993841617905560a08601519385019390935560c0850151600685015560e085015160078501805491949093919092169184908111156121c8576121c861318e565b0217905550610100828101516007909201805461012085015161014090950151151563010000000263ff00000019951515620100000262ff0000199515159094029490941662ffff00199091161791909117929092161790556005805490600061223183613b9a565b9091555050600554600090339061224a90600190613bb3565b6040805160008082526020820152600191810191909152606081018690527f4595add82735fb552f64748fc031bd6e53c364da7faac5ce52e2ee48c943b7d390608001611337565b600c546001600160a01b03166324d7806c336040516001600160e01b031960e084901b1681526001600160a01b039091166004820152602401602060405180830381865afa1580156122e8573d6000803e3d6000fd5b505050506040513d601f19601f8201168201806040525081019061230c919061393f565b6123285760405162461bcd60e51b81526004016107959061395c565b60005b825181101561239d5781818151811061234657612346613a07565b60200260200101516123776123583390565b85848151811061236a5761236a613a07565b60200260200101516105d6565b10156123955760405162461bcd60e51b815260040161079590613b58565b60010161232b565b506007546004805460405163af3dd63960e01b8152918201523060248201526001600160a01b039091169063af3dd639906044016020604051808303816000875af11580156123f0573d6000803e3d6000fd5b505050506040513d601f19601f8201168201806040525081019061241491906139ee565b50600a5460075460048054604051630fcb200d60e21b81526001600160a01b0393841692810192909252602482015260606044820152600060648201819052929190911690633f2c8034906084016020604051808303816000875af1158015612481573d6000803e3d6000fd5b505050506040513d601f19601f820116820180604052508101906124a59190613aad565b604080516060810182526001600160a01b038381168252602080830188815283850188905260045460009081526011835294909420835181546001600160a01b0319169316929092178255925180519495509193909261250c926001850192910190612f2c565b5060408201518051612528916002840191602090910190612f2c565b5050600480549150600061253b83613b9a565b9091555050600980546001810182556000919091527f6e1540171b6c0c960b71a7020d9f60077f6af931a8bbf590da0223dacf75c7af0180546001600160a01b0319166001600160a01b0383161790556040517f915708fb7ee5da90b08a28b58664546eae63c0680f363ea2cc38c345f5be2940906125bf90859085904290613bc6565b60405180910390a1505050565b600c546000906001600160a01b03166324d7806c336040516001600160e01b031960e084901b1681526001600160a01b039091166004820152602401602060405180830381865afa158015612625573d6000803e3d6000fd5b505050506040513d601f19601f82011682018060405250810190612649919061393f565b6126655760405162461bcd60e51b81526004016107959061395c565b600082116126c15760405162461bcd60e51b815260206004820152602360248201527f546f74616c20737570706c79206d75737420626520677265617465722074686160448201526206e20360ec1b6064820152608401610795565b60038054600091826126d283613b9a565b919050559050612708600660009054906101000a90046001600160a01b03168285604051806020016040528060008152506129dc565b604080516080810182528781526020808201889052818301879052606082018690526000848152600f90915291909120815181906127469082613c44565b506020820151600182019061275b9082613c44565b50604082015160028201906127709082613c44565b506060820151816003015590505080600d8760405161278f9190613d03565b9081526020016040518091039020866040516127ab9190613d03565b908152602001604051809103902081905550807fa09f8ded7663b6558550b417380d535c092265d90b5415bd6d16d8c95b027d138787866040516127f193929190613d1f565b60405180910390a295945050505050565b6001600160a01b03918216600090815260016020908152604080832093909416825291909152205460ff1690565b336001600160a01b0386168114801590612851575061284f8682612802565b155b156128825760405163711bec9160e11b81526001600160a01b03808316600483015287166024820152604401610795565b610d1f8686868686612a39565b60006001600160e01b03198216636cdb3d1360e11b14806128c057506001600160e01b031982166303a24d0760e21b145b806105f857506301ffc9a760e01b6001600160e01b03198316146105f8565b6001600160a01b03841661290957604051632bfa23e760e11b815260006004820152602401610795565b6001600160a01b03851661293257604051626a0d4560e21b815260006004820152602401610795565b61293f8585858585612ac7565b5050505050565b6001600160a01b03821661296f5760405162ced3e160e81b815260006004820152602401610795565b6001600160a01b03838116600081815260016020908152604080832094871680845294825291829020805460ff191686151590811790915591519182527f17307eab39ab6107e8899845ad3d59bd9653f200f220920489ca2b5937696c31910160405180910390a3505050565b6001600160a01b038416612a0657604051632bfa23e760e11b815260006004820152602401610795565b60408051600180825260208201869052818301908152606082018590526080820190925290610d1f600087848487612ac7565b6001600160a01b038416612a6357604051632bfa23e760e11b815260006004820152602401610795565b6001600160a01b038516612a8c57604051626a0d4560e21b815260006004820152602401610795565b60408051600180825260208201869052818301908152606082018590526080820190925290612abe8787848487612ac7565b50505050505050565b612ad385858585612b1a565b6001600160a01b0384161561293f5782513390600103612b0c5760208481015190840151612b05838989858589612d1f565b5050610d1f565b610d1f818787878787612e43565b8051825114612b495781518151604051635b05999160e01b815260048101929092526024820152604401610795565b3360005b8351811015612c4f576020818102858101820151908501909101516001600160a01b03881615612c00576000828152602081815260408083206001600160a01b038c16845290915290205481811015612bd9576040516303dee4c560e01b81526001600160a01b038a166004820152602481018290526044810183905260648101849052608401610795565b6000838152602081815260408083206001600160a01b038d16845290915290209082900390555b6001600160a01b03871615612c45576000828152602081815260408083206001600160a01b038b16845290915281208054839290612c3f908490613d44565b90915550505b5050600101612b4d565b508251600103612cd05760208301516000906020840151909150856001600160a01b0316876001600160a01b0316846001600160a01b03167fc3d58168c5ae7397731d063d5bbf3d657854427343f4c083240f7aacaa2d0f628585604051612cc1929190918252602082015260400190565b60405180910390a4505061293f565b836001600160a01b0316856001600160a01b0316826001600160a01b03167f4a39dc06d4c0dbc64b70af90fd698a233a518aa5d07e595d983b8c0526c8f7fb8686604051611b61929190613d57565b6001600160a01b0384163b15610d1f5760405163f23a6e6160e01b81526001600160a01b0385169063f23a6e6190612d639089908990889088908890600401613d7c565b6020604051808303816000875af1925050508015612d9e575060408051601f3d908101601f19168201909252612d9b91810190613db6565b60015b612e07573d808015612dcc576040519150601f19603f3d011682016040523d82523d6000602084013e612dd1565b606091505b508051600003612dff57604051632bfa23e760e11b81526001600160a01b0386166004820152602401610795565b805181602001fd5b6001600160e01b0319811663f23a6e6160e01b14612abe57604051632bfa23e760e11b81526001600160a01b0386166004820152602401610795565b6001600160a01b0384163b15610d1f5760405163bc197c8160e01b81526001600160a01b0385169063bc197c8190612e879089908990889088908890600401613dd3565b6020604051808303816000875af1925050508015612ec2575060408051601f3d908101601f19168201909252612ebf91810190613db6565b60015b612ef0573d808015612dcc576040519150601f19603f3d011682016040523d82523d6000602084013e612dd1565b6001600160e01b0319811663bc197c8160e01b14612abe57604051632bfa23e760e11b81526001600160a01b0386166004820152602401610795565b828054828255906000526020600020908101928215612f67579160200282015b82811115612f67578251825591602001919060010190612f4c565b50612f73929150612f77565b5090565b5b80821115612f735760008155600101612f78565b6001600160a01b0381168114612fa157600080fd5b50565b60008060408385031215612fb757600080fd5b8235612fc281612f8c565b946020939093013593505050565b6001600160e01b031981168114612fa157600080fd5b600060208284031215612ff857600080fd5b813561300381612fd0565b9392505050565b6020808252825182820181905260009190848201906040850190845b8181101561304b5783516001600160a01b031683529284019291840191600101613026565b50909695505050505050565b60006020828403121561306957600080fd5b5035919050565b60005b8381101561308b578181015183820152602001613073565b50506000910152565b600081518084526130ac816020860160208601613070565b601f01601f19169290920160200192915050565b6020815260006130036020830184613094565b6000806000806000608086880312156130eb57600080fd5b85356130f681612f8c565b9450602086013561310681612f8c565b93506040860135925060608601356001600160401b038082111561312957600080fd5b818801915088601f83011261313d57600080fd5b81358181111561314c57600080fd5b89602082850101111561315e57600080fd5b9699959850939650602001949392505050565b60006020828403121561318357600080fd5b813561300381612f8c565b634e487b7160e01b600052602160045260246000fd5b600581106131c257634e487b7160e01b600052602160045260246000fd5b9052565b81516001600160a01b03168152610160810160208301516131f260208401826001600160a01b03169052565b506040830151604083015260608301516060830152608083015161321a608084018215159052565b5060a083015160a083015260c083015160c083015260e083015161324160e08401826131a4565b506101008381015115159083015261012080840151151590830152610140928301511515929091019190915290565b634e487b7160e01b600052604160045260246000fd5b604051601f8201601f191681016001600160401b03811182821017156132ae576132ae613270565b604052919050565b60006001600160401b038211156132cf576132cf613270565b5060051b60200190565b600082601f8301126132ea57600080fd5b813560206132ff6132fa836132b6565b613286565b8083825260208201915060208460051b87010193508684111561332157600080fd5b602086015b8481101561333d5780358352918301918301613326565b509695505050505050565b600082601f83011261335957600080fd5b81356001600160401b0381111561337257613372613270565b613385601f8201601f1916602001613286565b81815284602083860101111561339a57600080fd5b816020850160208301376000918101602001919091529392505050565b600080600080600060a086880312156133cf57600080fd5b85356133da81612f8c565b945060208601356133ea81612f8c565b935060408601356001600160401b038082111561340657600080fd5b61341289838a016132d9565b9450606088013591508082111561342857600080fd5b61343489838a016132d9565b9350608088013591508082111561344a57600080fd5b5061345788828901613348565b9150509295509295909350565b60008060006060848603121561347957600080fd5b8335925060208401359150604084013561349281612f8c565b809150509250925092565b6000806000606084860312156134b257600080fd5b83356134bd81612f8c565b95602085013595506040909401359392505050565b600080604083850312156134e557600080fd5b82356001600160401b03808211156134fc57600080fd5b818501915085601f83011261351057600080fd5b813560206135206132fa836132b6565b82815260059290921b8401810191818101908984111561353f57600080fd5b948201945b8386101561356657853561355781612f8c565b82529482019490820190613544565b9650508601359250508082111561357c57600080fd5b50613589858286016132d9565b9150509250929050565b60008151808452602080850194506020840160005b838110156135c4578151875295820195908201906001016135a8565b509495945050505050565b6020815260006130036020830184613593565b6000806000606084860312156135f757600080fd5b83359250602084013561360981612f8c565b929592945050506040919091013590565b8015158114612fa157600080fd5b6000806040838503121561363b57600080fd5b823561364681612f8c565b915060208301356136568161361a565b809150509250929050565b6000806040838503121561367457600080fd5b50508035926020909101359150565b600080600080600060a0868803121561369b57600080fd5b853594506020860135935060408601356136b481612f8c565b92506060860135915060808601356136cb8161361a565b809150509295509295909350565b600080604083850312156136ec57600080fd5b82359150602083013561365681612f8c565b602080825282516001600160a01b0316828201528201516060604083015260009061372c6080840182613593565b90506040840151601f19848303016060850152610daa8282613593565b60808152600061375c6080830187613094565b828103602084015261376e8187613094565b905082810360408401526137828186613094565b91505082606083015295945050505050565b600080604083850312156137a757600080fd5b82356001600160401b03808211156137be57600080fd5b6137ca868387016132d9565b9350602085013591508082111561357c57600080fd5b600080600080608085870312156137f657600080fd5b84356001600160401b038082111561380d57600080fd5b61381988838901613348565b9550602087013591508082111561382f57600080fd5b61383b88838901613348565b9450604087013591508082111561385157600080fd5b5061385e87828801613348565b949793965093946060013593505050565b6000806040838503121561388257600080fd5b823561388d81612f8c565b9150602083013561365681612f8c565b600080600080600060a086880312156138b557600080fd5b85356138c081612f8c565b945060208601356138d081612f8c565b9350604086013592506060860135915060808601356001600160401b038111156138f957600080fd5b61345788828901613348565b600181811c9082168061391957607f821691505b60208210810361393957634e487b7160e01b600052602260045260246000fd5b50919050565b60006020828403121561395157600080fd5b81516130038161361a565b6020808252601c908201527f4c616e644d616e6167656d656e743a204e6f7420616e2061646d696e00000000604082015260600190565b600081548084526020808501945083600052602060002060005b838110156135c4578154875295820195600191820191016139ad565b6040815260006139dc6040830185613993565b8281036020840152610daa8185613993565b600060208284031215613a0057600080fd5b5051919050565b634e487b7160e01b600052603260045260246000fd5b60006020808385031215613a3057600080fd5b82516001600160401b03811115613a4657600080fd5b8301601f81018513613a5757600080fd5b8051613a656132fa826132b6565b81815260059190911b82018301908381019087831115613a8457600080fd5b928401925b82841015613aa257835182529284019290840190613a89565b979650505050505050565b600060208284031215613abf57600080fd5b815161300381612f8c565b60006020808385031215613add57600080fd5b82516001600160401b03811115613af357600080fd5b8301601f81018513613b0457600080fd5b8051613b126132fa826132b6565b81815260059190911b82018301908381019087831115613b3157600080fd5b928401925b82841015613aa2578351613b4981612f8c565b82529284019290840190613b36565b6020808252601290820152714e6f7420656e6f7567682062616c616e636560701b604082015260600190565b634e487b7160e01b600052601160045260246000fd5b600060018201613bac57613bac613b84565b5060010190565b818103818111156105f8576105f8613b84565b606081526000613bd96060830186613593565b8281036020840152613beb8186613593565b915050826040830152949350505050565b601f821115610a62576000816000526020600020601f850160051c81016020861015613c255750805b601f850160051c820191505b81811015610d1f57828155600101613c31565b81516001600160401b03811115613c5d57613c5d613270565b613c7181613c6b8454613905565b84613bfc565b602080601f831160018114613ca65760008415613c8e5750858301515b600019600386901b1c1916600185901b178555610d1f565b600085815260208120601f198616915b82811015613cd557888601518255948401946001909101908401613cb6565b5085821015613cf35787850151600019600388901b60f8161c191681555b5050505050600190811b01905550565b60008251613d15818460208701613070565b9190910192915050565b606081526000613d326060830186613094565b8281036020840152613beb8186613094565b808201808211156105f8576105f8613b84565b604081526000613d6a6040830185613593565b8281036020840152610daa8185613593565b6001600160a01b03868116825285166020820152604081018490526060810183905260a060808201819052600090613aa290830184613094565b600060208284031215613dc857600080fd5b815161300381612fd0565b6001600160a01b0386811682528516602082015260a060408201819052600090613dff90830186613593565b8281036060840152613e118186613593565b90508281036080840152613e258185613094565b9897505050505050505056fea2646970667358221220f6a265a632c8824cde5baa991eacdeb3dbd3727f20a554df3570cce70712507c64736f6c63430008190033",
  "linkReferences": {},
  "deployedLinkReferences": {}
}