{
  "_format": "hh-sol-artifact-1",
  "contractName": "LandAssetManager",
  "sourceName": "contracts/LandAssetManager.sol",
  "abi": [
    {
      "inputs": [
        {
          "internalType": "string",
          "name": "uri",
          "type": "string"
        },
        {
          "internalType": "address",
          "name": "_treasuryWallet",
          "type": "address"
        },
        {
          "internalType": "address",
          "name": "auth",
          "type": "address"
        }
      ],
      "stateMutability": "nonpayable",
      "type": "constructor"
    },
    {
      "inputs": [
        {
          "internalType": "address",
          "name": "sender",
          "type": "address"
        },
        {
          "internalType": "uint256",
          "name": "balance",
          "type": "uint256"
        },
        {
          "internalType": "uint256",
          "name": "needed",
          "type": "uint256"
        },
        {
          "internalType": "uint256",
          "name": "tokenId",
          "type": "uint256"
        }
      ],
      "name": "ERC1155InsufficientBalance",
      "type": "error"
    },
    {
      "inputs": [
        {
          "internalType": "address",
          "name": "approver",
          "type": "address"
        }
      ],
      "name": "ERC1155InvalidApprover",
      "type": "error"
    },
    {
      "inputs": [
        {
          "internalType": "uint256",
          "name": "idsLength",
          "type": "uint256"
        },
        {
          "internalType": "uint256",
          "name": "valuesLength",
          "type": "uint256"
        }
      ],
      "name": "ERC1155InvalidArrayLength",
      "type": "error"
    },
    {
      "inputs": [
        {
          "internalType": "address",
          "name": "operator",
          "type": "address"
        }
      ],
      "name": "ERC1155InvalidOperator",
      "type": "error"
    },
    {
      "inputs": [
        {
          "internalType": "address",
          "name": "receiver",
          "type": "address"
        }
      ],
      "name": "ERC1155InvalidReceiver",
      "type": "error"
    },
    {
      "inputs": [
        {
          "internalType": "address",
          "name": "sender",
          "type": "address"
        }
      ],
      "name": "ERC1155InvalidSender",
      "type": "error"
    },
    {
      "inputs": [
        {
          "internalType": "address",
          "name": "operator",
          "type": "address"
        },
        {
          "internalType": "address",
          "name": "owner",
          "type": "address"
        }
      ],
      "name": "ERC1155MissingApprovalForAll",
      "type": "error"
    },
    {
      "anonymous": false,
      "inputs": [
        {
          "indexed": true,
          "internalType": "address",
          "name": "account",
          "type": "address"
        },
        {
          "indexed": true,
          "internalType": "address",
          "name": "operator",
          "type": "address"
        },
        {
          "indexed": false,
          "internalType": "bool",
          "name": "approved",
          "type": "bool"
        }
      ],
      "name": "ApprovalForAll",
      "type": "event"
    },
    {
      "anonymous": false,
      "inputs": [
        {
          "indexed": false,
          "internalType": "uint256[]",
          "name": "parcelIds",
          "type": "uint256[]"
        },
        {
          "indexed": false,
          "internalType": "uint256[]",
          "name": "parcelAmount",
          "type": "uint256[]"
        },
        {
          "indexed": false,
          "internalType": "uint256",
          "name": "timestamp",
          "type": "uint256"
        }
      ],
      "name": "PlotCreated",
      "type": "event"
    },
    {
      "anonymous": false,
      "inputs": [
        {
          "indexed": true,
          "internalType": "uint256",
          "name": "tokenId",
          "type": "uint256"
        },
        {
          "indexed": false,
          "internalType": "string",
          "name": "blockInfo",
          "type": "string"
        },
        {
          "indexed": false,
          "internalType": "string",
          "name": "parcelInfo",
          "type": "string"
        },
        {
          "indexed": false,
          "internalType": "uint256",
          "name": "totalSupply",
          "type": "uint256"
        }
      ],
      "name": "TokenCreated",
      "type": "event"
    },
    {
      "anonymous": false,
      "inputs": [
        {
          "indexed": true,
          "internalType": "uint256",
          "name": "requestId",
          "type": "uint256"
        },
        {
          "indexed": true,
          "internalType": "address",
          "name": "approver",
          "type": "address"
        },
        {
          "indexed": false,
          "internalType": "uint256",
          "name": "role",
          "type": "uint256"
        },
        {
          "indexed": false,
          "internalType": "bool",
          "name": "isFullyApproved",
          "type": "bool"
        },
        {
          "indexed": false,
          "internalType": "uint256",
          "name": "timestamp",
          "type": "uint256"
        }
      ],
      "name": "TransferApproved",
      "type": "event"
    },
    {
      "anonymous": false,
      "inputs": [
        {
          "indexed": true,
          "internalType": "address",
          "name": "operator",
          "type": "address"
        },
        {
          "indexed": true,
          "internalType": "address",
          "name": "from",
          "type": "address"
        },
        {
          "indexed": true,
          "internalType": "address",
          "name": "to",
          "type": "address"
        },
        {
          "indexed": false,
          "internalType": "uint256[]",
          "name": "ids",
          "type": "uint256[]"
        },
        {
          "indexed": false,
          "internalType": "uint256[]",
          "name": "values",
          "type": "uint256[]"
        }
      ],
      "name": "TransferBatch",
      "type": "event"
    },
    {
      "anonymous": false,
      "inputs": [
        {
          "indexed": true,
          "internalType": "uint256",
          "name": "requestId",
          "type": "uint256"
        },
        {
          "indexed": true,
          "internalType": "address",
          "name": "from",
          "type": "address"
        },
        {
          "indexed": true,
          "internalType": "address",
          "name": "to",
          "type": "address"
        },
        {
          "indexed": false,
          "internalType": "uint256",
          "name": "tokenId",
          "type": "uint256"
        },
        {
          "indexed": false,
          "internalType": "uint256",
          "name": "amount",
          "type": "uint256"
        }
      ],
      "name": "TransferExecuted",
      "type": "event"
    },
    {
      "anonymous": false,
      "inputs": [
        {
          "indexed": true,
          "internalType": "uint256",
          "name": "requestId",
          "type": "uint256"
        },
        {
          "indexed": true,
          "internalType": "address",
          "name": "from",
          "type": "address"
        },
        {
          "indexed": true,
          "internalType": "address",
          "name": "to",
          "type": "address"
        },
        {
          "indexed": false,
          "internalType": "uint256",
          "name": "tokenId",
          "type": "uint256"
        },
        {
          "indexed": false,
          "internalType": "uint256",
          "name": "amount",
          "type": "uint256"
        },
        {
          "indexed": false,
          "internalType": "bool",
          "name": "isPlotTransfer",
          "type": "bool"
        },
        {
          "indexed": false,
          "internalType": "uint256",
          "name": "plotId",
          "type": "uint256"
        }
      ],
      "name": "TransferRequestCreated",
      "type": "event"
    },
    {
      "anonymous": false,
      "inputs": [
        {
          "indexed": true,
          "internalType": "address",
          "name": "operator",
          "type": "address"
        },
        {
          "indexed": true,
          "internalType": "address",
          "name": "from",
          "type": "address"
        },
        {
          "indexed": true,
          "internalType": "address",
          "name": "to",
          "type": "address"
        },
        {
          "indexed": false,
          "internalType": "uint256",
          "name": "id",
          "type": "uint256"
        },
        {
          "indexed": false,
          "internalType": "uint256",
          "name": "value",
          "type": "uint256"
        }
      ],
      "name": "TransferSingle",
      "type": "event"
    },
    {
      "anonymous": false,
      "inputs": [
        {
          "indexed": false,
          "internalType": "string",
          "name": "value",
          "type": "string"
        },
        {
          "indexed": true,
          "internalType": "uint256",
          "name": "id",
          "type": "uint256"
        }
      ],
      "name": "URI",
      "type": "event"
    },
    {
      "inputs": [
        {
          "internalType": "address",
          "name": "account",
          "type": "address"
        },
        {
          "internalType": "uint256",
          "name": "id",
          "type": "uint256"
        }
      ],
      "name": "balanceOf",
      "outputs": [
        {
          "internalType": "uint256",
          "name": "",
          "type": "uint256"
        }
      ],
      "stateMutability": "view",
      "type": "function"
    },
    {
      "inputs": [
        {
          "internalType": "address[]",
          "name": "accounts",
          "type": "address[]"
        },
        {
          "internalType": "uint256[]",
          "name": "ids",
          "type": "uint256[]"
        }
      ],
      "name": "balanceOfBatch",
      "outputs": [
        {
          "internalType": "uint256[]",
          "name": "",
          "type": "uint256[]"
        }
      ],
      "stateMutability": "view",
      "type": "function"
    },
    {
      "inputs": [
        {
          "internalType": "string",
          "name": "blockInfo",
          "type": "string"
        },
        {
          "internalType": "string",
          "name": "parcelInfo",
          "type": "string"
        },
        {
          "internalType": "string",
          "name": "tokenURI",
          "type": "string"
        },
        {
          "internalType": "uint256",
          "name": "totalSupply",
          "type": "uint256"
        }
      ],
      "name": "createBlockParcelToken",
      "outputs": [
        {
          "internalType": "uint256",
          "name": "",
          "type": "uint256"
        }
      ],
      "stateMutability": "nonpayable",
      "type": "function"
    },
    {
      "inputs": [
        {
          "internalType": "address",
          "name": "signerWallet",
          "type": "address"
        },
        {
          "internalType": "uint256",
          "name": "requestId",
          "type": "uint256"
        },
        {
          "internalType": "uint256",
          "name": "_role",
          "type": "uint256"
        }
      ],
      "name": "delegateApproveTransfer",
      "outputs": [],
      "stateMutability": "nonpayable",
      "type": "function"
    },
    {
      "inputs": [
        {
          "internalType": "uint256",
          "name": "requestId",
          "type": "uint256"
        }
      ],
      "name": "finalizeParcelTransfer",
      "outputs": [],
      "stateMutability": "nonpayable",
      "type": "function"
    },
    {
      "inputs": [
        {
          "internalType": "uint256",
          "name": "requestId",
          "type": "uint256"
        }
      ],
      "name": "finalizePlotTransfer",
      "outputs": [],
      "stateMutability": "nonpayable",
      "type": "function"
    },
    {
      "inputs": [
        {
          "internalType": "uint256",
          "name": "_tokenId",
          "type": "uint256"
        }
      ],
      "name": "getBlockParcelTokenURI",
      "outputs": [
        {
          "internalType": "string",
          "name": "",
          "type": "string"
        }
      ],
      "stateMutability": "view",
      "type": "function"
    },
    {
      "inputs": [],
      "name": "getListOfTotalPlots",
      "outputs": [
        {
          "internalType": "address[]",
          "name": "",
          "type": "address[]"
        }
      ],
      "stateMutability": "view",
      "type": "function"
    },
    {
      "inputs": [
        {
          "internalType": "uint256",
          "name": "_plotId",
          "type": "uint256"
        },
        {
          "internalType": "address",
          "name": "_user",
          "type": "address"
        }
      ],
      "name": "getOwnershipPercentage",
      "outputs": [
        {
          "internalType": "uint256",
          "name": "",
          "type": "uint256"
        }
      ],
      "stateMutability": "view",
      "type": "function"
    },
    {
      "inputs": [
        {
          "internalType": "uint256",
          "name": "_plotId",
          "type": "uint256"
        }
      ],
      "name": "getPlotAccountInfo",
      "outputs": [
        {
          "components": [
            {
              "internalType": "address",
              "name": "plotAccount",
              "type": "address"
            },
            {
              "internalType": "uint256[]",
              "name": "parcelIds",
              "type": "uint256[]"
            },
            {
              "internalType": "uint256[]",
              "name": "parcelAmounts",
              "type": "uint256[]"
            }
          ],
          "internalType": "struct LandAssetManager.PlotInfo",
          "name": "",
          "type": "tuple"
        }
      ],
      "stateMutability": "view",
      "type": "function"
    },
    {
      "inputs": [
        {
          "internalType": "uint256",
          "name": "_plotId",
          "type": "uint256"
        },
        {
          "internalType": "uint256",
          "name": "_parcelId",
          "type": "uint256"
        }
      ],
      "name": "getPlotAccountParcelShareholders",
      "outputs": [
        {
          "internalType": "address[]",
          "name": "",
          "type": "address[]"
        }
      ],
      "stateMutability": "view",
      "type": "function"
    },
    {
      "inputs": [
        {
          "internalType": "uint256",
          "name": "_plotId",
          "type": "uint256"
        },
        {
          "internalType": "uint256",
          "name": "_parcelId",
          "type": "uint256"
        }
      ],
      "name": "getPlotAccountParcelTotalShares",
      "outputs": [
        {
          "internalType": "uint256",
          "name": "",
          "type": "uint256"
        }
      ],
      "stateMutability": "view",
      "type": "function"
    },
    {
      "inputs": [
        {
          "internalType": "uint256",
          "name": "_plotId",
          "type": "uint256"
        },
        {
          "internalType": "address",
          "name": "_user",
          "type": "address"
        },
        {
          "internalType": "uint256",
          "name": "_parcel",
          "type": "uint256"
        }
      ],
      "name": "getPlotAccountUserParcels",
      "outputs": [
        {
          "internalType": "uint256[]",
          "name": "",
          "type": "uint256[]"
        }
      ],
      "stateMutability": "view",
      "type": "function"
    },
    {
      "inputs": [
        {
          "internalType": "uint256",
          "name": "_plotId",
          "type": "uint256"
        },
        {
          "internalType": "uint256",
          "name": "_parcelId",
          "type": "uint256"
        },
        {
          "internalType": "address",
          "name": "_user",
          "type": "address"
        }
      ],
      "name": "getPlotAccountUserShares",
      "outputs": [
        {
          "internalType": "uint256",
          "name": "",
          "type": "uint256"
        }
      ],
      "stateMutability": "view",
      "type": "function"
    },
    {
      "inputs": [
        {
          "internalType": "address",
          "name": "account",
          "type": "address"
        },
        {
          "internalType": "address",
          "name": "operator",
          "type": "address"
        }
      ],
      "name": "isApprovedForAll",
      "outputs": [
        {
          "internalType": "bool",
          "name": "",
          "type": "bool"
        }
      ],
      "stateMutability": "view",
      "type": "function"
    },
    {
      "inputs": [
        {
          "internalType": "address",
          "name": "",
          "type": "address"
        }
      ],
      "name": "isPlotRegistered",
      "outputs": [
        {
          "internalType": "bool",
          "name": "",
          "type": "bool"
        }
      ],
      "stateMutability": "view",
      "type": "function"
    },
    {
      "inputs": [
        {
          "internalType": "uint256",
          "name": "",
          "type": "uint256"
        }
      ],
      "name": "landInfo",
      "outputs": [
        {
          "internalType": "string",
          "name": "blockInfo",
          "type": "string"
        },
        {
          "internalType": "string",
          "name": "parcelInfo",
          "type": "string"
        },
        {
          "internalType": "string",
          "name": "blockParcelTokenURI",
          "type": "string"
        },
        {
          "internalType": "uint256",
          "name": "totalSupply",
          "type": "uint256"
        }
      ],
      "stateMutability": "view",
      "type": "function"
    },
    {
      "inputs": [
        {
          "internalType": "uint256",
          "name": "",
          "type": "uint256"
        }
      ],
      "name": "listOfTotalPlots",
      "outputs": [
        {
          "internalType": "address",
          "name": "",
          "type": "address"
        }
      ],
      "stateMutability": "view",
      "type": "function"
    },
    {
      "inputs": [],
      "name": "nextRequestId",
      "outputs": [
        {
          "internalType": "uint256",
          "name": "",
          "type": "uint256"
        }
      ],
      "stateMutability": "view",
      "type": "function"
    },
    {
      "inputs": [],
      "name": "nextTokenId",
      "outputs": [
        {
          "internalType": "uint256",
          "name": "",
          "type": "uint256"
        }
      ],
      "stateMutability": "view",
      "type": "function"
    },
    {
      "inputs": [
        {
          "internalType": "address",
          "name": "operator",
          "type": "address"
        },
        {
          "internalType": "address",
          "name": "from",
          "type": "address"
        },
        {
          "internalType": "uint256",
          "name": "tokenId",
          "type": "uint256"
        },
        {
          "internalType": "bytes",
          "name": "data",
          "type": "bytes"
        }
      ],
      "name": "onERC721Received",
      "outputs": [
        {
          "internalType": "bytes4",
          "name": "",
          "type": "bytes4"
        }
      ],
      "stateMutability": "pure",
      "type": "function"
    },
    {
      "inputs": [
        {
          "internalType": "uint256",
          "name": "",
          "type": "uint256"
        }
      ],
      "name": "plotAccountInfo",
      "outputs": [
        {
          "internalType": "address",
          "name": "plotAccount",
          "type": "address"
        }
      ],
      "stateMutability": "view",
      "type": "function"
    },
    {
      "inputs": [
        {
          "internalType": "uint256",
          "name": "_plotId",
          "type": "uint256"
        }
      ],
      "name": "plotFinalize",
      "outputs": [],
      "stateMutability": "nonpayable",
      "type": "function"
    },
    {
      "inputs": [
        {
          "internalType": "uint256[]",
          "name": "parcelIds",
          "type": "uint256[]"
        },
        {
          "internalType": "uint256[]",
          "name": "parcelAmounts",
          "type": "uint256[]"
        }
      ],
      "name": "plotInitiate",
      "outputs": [],
      "stateMutability": "nonpayable",
      "type": "function"
    },
    {
      "inputs": [],
      "name": "plotNft",
      "outputs": [
        {
          "internalType": "contract IERC721",
          "name": "",
          "type": "address"
        }
      ],
      "stateMutability": "view",
      "type": "function"
    },
    {
      "inputs": [],
      "name": "plotPassAddress",
      "outputs": [
        {
          "internalType": "address",
          "name": "",
          "type": "address"
        }
      ],
      "stateMutability": "view",
      "type": "function"
    },
    {
      "inputs": [],
      "name": "plotRegistry",
      "outputs": [
        {
          "internalType": "contract IPlotRegistry",
          "name": "",
          "type": "address"
        }
      ],
      "stateMutability": "view",
      "type": "function"
    },
    {
      "inputs": [
        {
          "internalType": "uint256",
          "name": "_parcelId",
          "type": "uint256"
        },
        {
          "internalType": "uint256",
          "name": "parcelAmount",
          "type": "uint256"
        },
        {
          "internalType": "address",
          "name": "to",
          "type": "address"
        },
        {
          "internalType": "uint256",
          "name": "_plotId",
          "type": "uint256"
        },
        {
          "internalType": "bool",
          "name": "isPlotTransfer",
          "type": "bool"
        }
      ],
      "name": "requestForParcelTransfer",
      "outputs": [],
      "stateMutability": "nonpayable",
      "type": "function"
    },
    {
      "inputs": [
        {
          "internalType": "uint256",
          "name": "_plotId",
          "type": "uint256"
        },
        {
          "internalType": "address",
          "name": "to",
          "type": "address"
        }
      ],
      "name": "requestForWholePlotTransfer",
      "outputs": [],
      "stateMutability": "nonpayable",
      "type": "function"
    },
    {
      "inputs": [
        {
          "internalType": "uint256",
          "name": "requestId",
          "type": "uint256"
        }
      ],
      "name": "requestStatus",
      "outputs": [
        {
          "components": [
            {
              "internalType": "address",
              "name": "from",
              "type": "address"
            },
            {
              "internalType": "address",
              "name": "to",
              "type": "address"
            },
            {
              "internalType": "uint256",
              "name": "parcelId",
              "type": "uint256"
            },
            {
              "internalType": "uint256",
              "name": "parcelAmount",
              "type": "uint256"
            },
            {
              "internalType": "bool",
              "name": "isPlotTransfer",
              "type": "bool"
            },
            {
              "internalType": "uint256",
              "name": "plotId",
              "type": "uint256"
            },
            {
              "internalType": "uint256",
              "name": "timestamp",
              "type": "uint256"
            },
            {
              "internalType": "enum LandAssetManager.TransferStatus",
              "name": "status",
              "type": "uint8"
            },
            {
              "internalType": "bool",
              "name": "landAuthorityApproved",
              "type": "bool"
            },
            {
              "internalType": "bool",
              "name": "lawyerApproved",
              "type": "bool"
            },
            {
              "internalType": "bool",
              "name": "bankApproved",
              "type": "bool"
            }
          ],
          "internalType": "struct LandAssetManager.TransferRequest",
          "name": "",
          "type": "tuple"
        }
      ],
      "stateMutability": "view",
      "type": "function"
    },
    {
      "inputs": [
        {
          "internalType": "address",
          "name": "from",
          "type": "address"
        },
        {
          "internalType": "address",
          "name": "to",
          "type": "address"
        },
        {
          "internalType": "uint256[]",
          "name": "ids",
          "type": "uint256[]"
        },
        {
          "internalType": "uint256[]",
          "name": "values",
          "type": "uint256[]"
        },
        {
          "internalType": "bytes",
          "name": "data",
          "type": "bytes"
        }
      ],
      "name": "safeBatchTransferFrom",
      "outputs": [],
      "stateMutability": "nonpayable",
      "type": "function"
    },
    {
      "inputs": [
        {
          "internalType": "address",
          "name": "from",
          "type": "address"
        },
        {
          "internalType": "address",
          "name": "to",
          "type": "address"
        },
        {
          "internalType": "uint256",
          "name": "id",
          "type": "uint256"
        },
        {
          "internalType": "uint256",
          "name": "value",
          "type": "uint256"
        },
        {
          "internalType": "bytes",
          "name": "data",
          "type": "bytes"
        }
      ],
      "name": "safeTransferFrom",
      "outputs": [],
      "stateMutability": "nonpayable",
      "type": "function"
    },
    {
      "inputs": [
        {
          "internalType": "address",
          "name": "operator",
          "type": "address"
        },
        {
          "internalType": "bool",
          "name": "approved",
          "type": "bool"
        }
      ],
      "name": "setApprovalForAll",
      "outputs": [],
      "stateMutability": "nonpayable",
      "type": "function"
    },
    {
      "inputs": [
        {
          "internalType": "address",
          "name": "_plotRegistry",
          "type": "address"
        }
      ],
      "name": "setPlotRegistryContract",
      "outputs": [],
      "stateMutability": "nonpayable",
      "type": "function"
    },
    {
      "inputs": [
        {
          "internalType": "address",
          "name": "_addr",
          "type": "address"
        }
      ],
      "name": "setplotOwnershipContract",
      "outputs": [],
      "stateMutability": "nonpayable",
      "type": "function"
    },
    {
      "inputs": [
        {
          "internalType": "bytes4",
          "name": "interfaceId",
          "type": "bytes4"
        }
      ],
      "name": "supportsInterface",
      "outputs": [
        {
          "internalType": "bool",
          "name": "",
          "type": "bool"
        }
      ],
      "stateMutability": "view",
      "type": "function"
    },
    {
      "inputs": [],
      "name": "treasuryWallet",
      "outputs": [
        {
          "internalType": "address",
          "name": "",
          "type": "address"
        }
      ],
      "stateMutability": "view",
      "type": "function"
    },
    {
      "inputs": [
        {
          "internalType": "uint256",
          "name": "",
          "type": "uint256"
        }
      ],
      "name": "uri",
      "outputs": [
        {
          "internalType": "string",
          "name": "",
          "type": "string"
        }
      ],
      "stateMutability": "view",
      "type": "function"
    }
  ],
  "bytecode": "0x608060405260016003556001600455600160055534801561001f57600080fd5b5060405161411338038061411383398101604081905261003e91610124565b82610048816100e2565b506001600160a01b0382166100a35760405162461bcd60e51b815260206004820152601760248201527f496e76616c69642074726561737572792077616c6c6574000000000000000000604482015260640160405180910390fd5b600680546001600160a01b039384166001600160a01b031991821617909155600c80549290931691811682179092556008805490921617905550610358565b60026100ee8282610299565b5050565b634e487b7160e01b600052604160045260246000fd5b80516001600160a01b038116811461011f57600080fd5b919050565b60008060006060848603121561013957600080fd5b83516001600160401b038082111561015057600080fd5b818601915086601f83011261016457600080fd5b815181811115610176576101766100f2565b604051601f8201601f19908116603f0116810190838211818310171561019e5761019e6100f2565b816040528281526020935089848487010111156101ba57600080fd5b600091505b828210156101dc57848201840151818301850152908301906101bf565b60008484830101528097505050506101f5818701610108565b9350505061020560408501610108565b90509250925092565b600181811c9082168061022257607f821691505b60208210810361024257634e487b7160e01b600052602260045260246000fd5b50919050565b601f821115610294576000816000526020600020601f850160051c810160208610156102715750805b601f850160051c820191505b818110156102905782815560010161027d565b5050505b505050565b81516001600160401b038111156102b2576102b26100f2565b6102c6816102c0845461020e565b84610248565b602080601f8311600181146102fb57600084156102e35750858301515b600019600386901b1c1916600185901b178555610290565b600085815260208120601f198616915b8281101561032a5788860151825594840194600190910190840161030b565b50858210156103485787850151600019600388901b60f8161c191681555b5050505050600190811b01905550565b613dac806103676000396000f3fe608060405234801561001057600080fd5b50600436106102315760003560e01c806375794a3c11610130578063bdcb0314116100b8578063c572aad01161007c578063c572aad01461054d578063cea7084414610560578063e985e9c514610573578063f242432a14610586578063fbf536dd1461059957600080fd5b8063bdcb0314146104d1578063bf5f71b8146104e4578063c2d4769d146104f7578063c3edcdd114610517578063c5725f4b1461053a57600080fd5b8063a31a3a43116100ff578063a31a3a4314610472578063a56eb79014610485578063a738a28514610498578063a7994b58146104ab578063a900e236146104be57600080fd5b806375794a3c1461042057806378fe8890146104295780637b3b96731461044c578063a22cb4651461045f57600080fd5b80632eb2c2d6116101be5780634e1273f4116101825780634e1273f4146103be5780635d7766bb146103de5780636a4895ff146103f15780636a84a985146104045780636fbba4d91461040d57600080fd5b80632eb2c2d61461035f578063360f758214610372578063399db4d41461038557806340155f57146103985780634626402b146103ab57600080fd5b80631379cf5c116102055780631379cf5c146102b4578063150b7a02146102c9578063193e9ecb146103015780631a313202146103145780631c1118db1461033457600080fd5b8062fdd58e1461023657806301ffc9a71461025c5780630d1dfd081461027f5780630e89341c14610294575b600080fd5b610249610244366004612ee9565b6105c2565b6040519081526020015b60405180910390f35b61026f61026a366004612f2b565b6105ea565b6040519015158152602001610253565b6102876105f5565b6040516102539190612f4f565b6102a76102a2366004612f9c565b610657565b6040516102539190613005565b6102c76102c2366004612f9c565b6106eb565b005b6102e86102d7366004613018565b630a85bd0160e11b95945050505050565b6040516001600160e01b03199091168152602001610253565b6102c761030f3660046130b6565b610a53565b610327610322366004612f9c565b610b0b565b604051610253919061310b565b600754610347906001600160a01b031681565b6040516001600160a01b039091168152602001610253565b6102c761036d3660046132fc565b610cac565b6102496103803660046133a9565b610d13565b6102c76103933660046133e2565b610d9f565b6102c76103a63660046130b6565b610fbc565b600654610347906001600160a01b031681565b6103d16103cc366004613417565b61107e565b6040516102539190613514565b600b54610347906001600160a01b031681565b6102c76103ff366004612f9c565b61114a565b61024960055481565b6102a761041b366004612f9c565b61132f565b61024960035481565b61026f6104373660046130b6565b600e6020526000908152604090205460ff1681565b6103d161045a366004613527565b61134f565b6102c761046d36600461356d565b6113d8565b610347610480366004612f9c565b6113e7565b6102c7610493366004612f9c565b611411565b6102876104a63660046135a6565b6117c9565b6102c76104b93660046135c8565b611852565b600a54610347906001600160a01b031681565b6102496104df3660046135a6565b611ab5565b6102496104f236600461361e565b611b31565b61050a610505366004612f9c565b611b71565b6040516102539190613643565b61052a610525366004612f9c565b611c7b565b604051610253949392919061368e565b6102c761054836600461361e565b611e3b565b6102c761055b3660046136d9565b6121d7565b61024961056e366004613725565b612511565b61026f6105813660046137b4565b612747565b6102c76105943660046137e2565b612775565b6103476105a7366004612f9c565b6011602052600090815260409020546001600160a01b031681565b6000818152602081815260408083206001600160a01b03861684529091529020545b92915050565b60006105e4826127d4565b6060600980548060200260200160405190810160405280929190818152602001828054801561064d57602002820191906000526020600020905b81546001600160a01b0316815260019091019060200180831161062f575b5050505050905090565b6060600280546106669061384a565b80601f01602080910402602001604051908101604052809291908181526020018280546106929061384a565b80156106df5780601f106106b4576101008083540402835291602001916106df565b820191906000526020600020905b8154815290600101906020018083116106c257829003601f168201915b50505050509050919050565b600c546001600160a01b03166324d7806c336040516001600160e01b031960e084901b1681526001600160a01b039091166004820152602401602060405180830381865afa158015610741573d6000803e3d6000fd5b505050506040513d601f19601f820116820180604052508101906107659190613884565b61078a5760405162461bcd60e51b8152600401610781906138a1565b60405180910390fd5b6000818152601160209081526040808320546001600160a01b0316808452600e9092529091205460ff16156107fa5760405162461bcd60e51b8152602060048201526016602482015275141b1bdd08185b1c9958591e48199a5b985b1a5e995960521b6044820152606401610781565b6001600160a01b038181166000818152600e602052604090819020805460ff191660011790556008549051632b2e05c160e01b81529216600483015290632b2e05c190602401600060405180830381600087803b15801561085a57600080fd5b505af115801561086e573d6000803e3d6000fd5b5050600b546001600160a01b031691506323b872dd905030336040516001600160e01b031960e085901b1681526001600160a01b0392831660048201529116602482015260448101859052606401600060405180830381600087803b1580156108d657600080fd5b505af11580156108ea573d6000803e3d6000fd5b505050506109c76108f83390565b600084815260116020908152604091829020600101805483518184028101840190945280845286939283018282801561095057602002820191906000526020600020905b81548152602001906001019080831161093c575b505050600088815260116020908152604091829020600201805483518184028101840190945280845292945092508301828280156109ad57602002820191906000526020600020905b815481526020019060010190808311610999575b505050505060405180602001604052806000815250610cac565b600082815260116020526040908190209051632187c29560e11b81526001600160a01b0383169163430f852a91610a0b91600181019160029091019060040161390e565b6020604051808303816000875af1158015610a2a573d6000803e3d6000fd5b505050506040513d601f19601f82011682018060405250810190610a4e9190613933565b505050565b600c546001600160a01b03166324d7806c336040516001600160e01b031960e084901b1681526001600160a01b039091166004820152602401602060405180830381865afa158015610aa9573d6000803e3d6000fd5b505050506040513d601f19601f82011682018060405250810190610acd9190613884565b610ae95760405162461bcd60e51b8152600401610781906138a1565b600a80546001600160a01b0319166001600160a01b0392909216919091179055565b6040805161016081018252600080825260208201819052918101829052606081018290526080810182905260a0810182905260c0810182905260e08101829052610100810182905261012081018290526101408101919091526000828152601060205260409020546001600160a01b03163314610bca5760405162461bcd60e51b815260206004820152601d60248201527f4e6f74207468652073656e646572206f662074686520726571756573740000006044820152606401610781565b60008281526010602090815260409182902082516101608101845281546001600160a01b039081168252600183015416928101929092526002810154928201929092526003820154606082015260048083015460ff90811615156080840152600584015460a0840152600684015460c0840152600784015492939260e0850192911690811115610c5c57610c5c6130d3565b6004811115610c6d57610c6d6130d3565b81526007919091015460ff6101008204811615156020840152620100008204811615156040840152630100000090910416151560609091015292915050565b336001600160a01b0386168114801590610ccd5750610ccb8682612747565b155b15610cfe5760405163711bec9160e11b81526001600160a01b03808316600483015287166024820152604401610781565b610d0b8686868686612824565b505050505050565b60008381526011602052604080822054905163835dc40b60e01b8152600481018590526001600160a01b03848116602483015290911690819063835dc40b90604401602060405180830381865afa158015610d72573d6000803e3d6000fd5b505050506040513d601f19601f82011682018060405250810190610d969190613933565b95945050505050565b600081600103610e80576000838152601060205260409020600701805461ff001916610100179081905562010000900460ff168015610df657506000838152601060205260409020600701546301000000900460ff165b15610e2457600083815260106020526040902060070180546002919060ff19166001835b0217905550600190505b836001600160a01b0316837faf49c9f2c598a27f6918ca87eb8058baac5f2f871de5ef13b001f58545e28060848442604051610e73939291909283529015156020830152604082015260600190565b60405180910390a3610fb6565b81600203610efe576000838152601060205260409020600701805463ff00000019166301000000179081905562010000900460ff168015610df65750600083815260106020526040902060070154610100900460ff1615610e2457600083815260106020526040902060070180546002919060ff1916600183610e1a565b81600303610f7b576000838152601060205260409020600701805462ff000019166201000017908190556301000000900460ff168015610df65750600083815260106020526040902060070154610100900460ff1615610e2457600083815260106020526040902060070180546002919060ff1916600183610e1a565b60405162461bcd60e51b815260206004820152601060248201526f4e6f7420616e20417574686f7269747960801b6044820152606401610781565b50505050565b600c546001600160a01b03166324d7806c336040516001600160e01b031960e084901b1681526001600160a01b039091166004820152602401602060405180830381865afa158015611012573d6000803e3d6000fd5b505050506040513d601f19601f820116820180604052508101906110369190613884565b6110525760405162461bcd60e51b8152600401610781906138a1565b600b80546001600160a01b039092166001600160a01b0319928316811790915560078054909216179055565b606081518351146110af5781518351604051635b05999160e01b815260048101929092526024820152604401610781565b600083516001600160401b038111156110ca576110ca6131b5565b6040519080825280602002602001820160405280156110f3578160200160208202803683370190505b50905060005b84518110156111425760208082028601015161111d906020808402870101516105c2565b82828151811061112f5761112f61394c565b60209081029190910101526001016110f9565b509392505050565b60008181526010602052604090206002600782015460ff166004811115611173576111736130d3565b146111b75760405162461bcd60e51b815260206004820152601460248201527314995c5d595cdd081b9bdd08185c1c1c9bdd995960621b6044820152606401610781565b600481015460ff161561127f576005810154600090815260116020526040908190205482546001840154600285015460038601549451632f80af0f60e21b81526001600160a01b039384166004820152918316602483015260448201526064810193909352169063be02bc3c906084016020604051808303816000875af1158015611246573d6000803e3d6000fd5b505050506040513d601f19601f8201168201806040525081019061126a9190613884565b5060078101805460ff191660041790556112c8565b80546001820154600283015460038401546040805160208101909152600081526112b8946001600160a01b039081169416929190612775565b60078101805460ff191660041790555b60018101548154600283015460038401546040516001600160a01b0394851694939093169286927fc6dd6857b8ac04586ee065e8ee95def9aaebf505c92d9a01be171df17b97798e9261132392918252602082015260400190565b60405180910390a45050565b6000818152600f602052604090206002018054606091906106669061384a565b600083815260116020526040908190205490516363319d8d60e01b81526001600160a01b03848116600483015260248201849052606092169081906363319d8d90604401600060405180830381865afa1580156113b0573d6000803e3d6000fd5b505050506040513d6000823e601f3d908101601f19168201604052610d969190810190613962565b6113e333838361288b565b5050565b600981815481106113f757600080fd5b6000918252602090912001546001600160a01b0316905081565b60008181526010602052604090819020600b548154925163e985e9c560e01b81526001600160a01b0393841660048201523060248201529192169063e985e9c590604401602060405180830381865afa158015611472573d6000803e3d6000fd5b505050506040513d601f19601f820116820180604052508101906114969190613884565b8061151a5750600b54600582015460405163020604bf60e21b8152600481019190915230916001600160a01b03169063081812fc90602401602060405180830381865afa1580156114eb573d6000803e3d6000fd5b505050506040513d601f19601f8201168201806040525081019061150f91906139f2565b6001600160a01b0316145b6115795760405162461bcd60e51b815260206004820152602a60248201527f436f6e7472616374206e6f7420617070726f76656420746f207472616e7366656044820152691c881c1b1bdd0813919560b21b6064820152608401610781565b8054600b5460058301546040516331a9108f60e11b815260048101919091526001600160a01b039283169290911690636352211e90602401602060405180830381865afa1580156115ce573d6000803e3d6000fd5b505050506040513d601f19601f820116820180604052508101906115f291906139f2565b6001600160a01b0316146116445760405162461bcd60e51b8152602060048201526019602482015278139bdd081d1a19481bdddb995c881bd9881d1a19481c1b1bdd603a1b6044820152606401610781565b6002600782015460ff16600481111561165f5761165f6130d3565b146116a35760405162461bcd60e51b815260206004820152601460248201527314995c5d595cdd081b9bdd08185c1c1c9bdd995960621b6044820152606401610781565b6005810154600090815260116020526040908190205482546001840154925163b061ce0560e01b81526001600160a01b0391821660048201529281166024840152169063b061ce05906044016020604051808303816000875af115801561170e573d6000803e3d6000fd5b505050506040513d601f19601f820116820180604052508101906117329190613884565b50600b54815460018301546005840154604051635c46a7ef60e11b81526001600160a01b03938416600482015291831660248301526044820152608060648201526000608482015291169063b88d4fde9060a401600060405180830381600087803b1580156117a057600080fd5b505af11580156117b4573d6000803e3d6000fd5b50505050600701805460ff1916600417905550565b600082815260116020526040908190205490516309771aed60e41b8152600481018390526060916001600160a01b0316908190639771aed090602401600060405180830381865afa158015611822573d6000803e3d6000fd5b505050506040513d6000823e601f3d908101601f1916820160405261184a9190810190613a0f565b949350505050565b80611885578361186233876105c2565b10156118805760405162461bcd60e51b815260040161078190613a9d565b6118af565b83611891838733610d13565b10156118af5760405162461bcd60e51b815260040161078190613a9d565b806118b957600091505b6040518061016001604052806118cc3390565b6001600160a01b03168152602001846001600160a01b0316815260200186815260200185815260200182151581526020018381526020014281526020016001600481111561191c5761191c6130d3565b815260006020808301829052604080840183905260609384018390526005805484526010835292819020855181546001600160a01b039182166001600160a01b03199182161783559387015160018381018054929093169190951617905590850151600282015592840151600384015560808401516004808501805492151560ff1993841617905560a08601519385019390935560c0850151600685015560e085015160078501805491949093919092169184908111156119df576119df6130d3565b0217905550610100828101516007909201805461012085015161014090950151151563010000000263ff00000019951515620100000262ff0000199515159094029490941662ffff001990911617919091179290921617905560058054906000611a4883613adf565b90915550506005546000903390611a6190600190613af8565b604080518981526020810189905285151591810191909152606081018690527f4595add82735fb552f64748fc031bd6e53c364da7faac5ce52e2ee48c943b7d3906080015b60405180910390a45050505050565b600082815260116020526040808220549051630447b88d60e51b8152600481018490526001600160a01b039091169081906388f711a0906024015b602060405180830381865afa158015611b0d573d6000803e3d6000fd5b505050506040513d601f19601f8201168201806040525081019061184a9190613933565b60008281526011602052604080822054905163145263fd60e31b81526001600160a01b03848116600483015290911690819063a2931fe890602401611af0565b611b9e604051806060016040528060006001600160a01b0316815260200160608152602001606081525090565b600082815260116020908152604091829020825160608101845281546001600160a01b0316815260018201805485518186028101860190965280865291949293858101939290830182828015611c1357602002820191906000526020600020905b815481526020019060010190808311611bff575b5050505050815260200160028201805480602002602001604051908101604052809291908181526020018280548015611c6b57602002820191906000526020600020905b815481526020019060010190808311611c57575b5050505050815250509050919050565b600f60205260009081526040902080548190611c969061384a565b80601f0160208091040260200160405190810160405280929190818152602001828054611cc29061384a565b8015611d0f5780601f10611ce457610100808354040283529160200191611d0f565b820191906000526020600020905b815481529060010190602001808311611cf257829003601f168201915b505050505090806001018054611d249061384a565b80601f0160208091040260200160405190810160405280929190818152602001828054611d509061384a565b8015611d9d5780601f10611d7257610100808354040283529160200191611d9d565b820191906000526020600020905b815481529060010190602001808311611d8057829003601f168201915b505050505090806002018054611db29061384a565b80601f0160208091040260200160405190810160405280929190818152602001828054611dde9061384a565b8015611e2b5780601f10611e0057610100808354040283529160200191611e2b565b820191906000526020600020905b815481529060010190602001808311611e0e57829003601f168201915b5050505050908060030154905084565b33600b546040516331a9108f60e11b8152600481018590526001600160a01b039283169290911690636352211e90602401602060405180830381865afa158015611e89573d6000803e3d6000fd5b505050506040513d601f19601f82011682018060405250810190611ead91906139f2565b6001600160a01b031614611eff5760405162461bcd60e51b8152602060048201526019602482015278139bdd081d1a19481bdddb995c881bd9881d1a19481c1b1bdd603a1b6044820152606401610781565b6000828152601160205260409020546001600160a01b031663a2931fe8336040516001600160e01b031960e084901b1681526001600160a01b039091166004820152602401602060405180830381865afa158015611f61573d6000803e3d6000fd5b505050506040513d601f19601f82011682018060405250810190611f859190613933565b61271014611fe45760405162461bcd60e51b815260206004820152602660248201527f5573657220646f6573206e6f742068617665207468652066756c6c206f776e6560448201526503939b434b8160d51b6064820152608401610781565b604051806101600160405280611ff73390565b6001600160a01b03168152602001826001600160a01b0316815260200160008152602001600081526020016001151581526020018381526020014281526020016001600481111561204a5761204a6130d3565b815260006020808301829052604080840183905260609384018390526005805484526010835292819020855181546001600160a01b039182166001600160a01b03199182161783559387015160018381018054929093169190951617905590850151600282015592840151600384015560808401516004808501805492151560ff1993841617905560a08601519385019390935560c0850151600685015560e0850151600785018054919490939190921691849081111561210d5761210d6130d3565b0217905550610100828101516007909201805461012085015161014090950151151563010000000263ff00000019951515620100000262ff0000199515159094029490941662ffff00199091161791909117929092161790556005805490600061217683613adf565b9091555050600554600090339061218f90600190613af8565b6040805160008082526020820152600191810191909152606081018690527f4595add82735fb552f64748fc031bd6e53c364da7faac5ce52e2ee48c943b7d390608001611323565b600c546001600160a01b03166324d7806c336040516001600160e01b031960e084901b1681526001600160a01b039091166004820152602401602060405180830381865afa15801561222d573d6000803e3d6000fd5b505050506040513d601f19601f820116820180604052508101906122519190613884565b61226d5760405162461bcd60e51b8152600401610781906138a1565b60005b82518110156122e25781818151811061228b5761228b61394c565b60200260200101516122bc61229d3390565b8584815181106122af576122af61394c565b60200260200101516105c2565b10156122da5760405162461bcd60e51b815260040161078190613a9d565b600101612270565b506007546004805460405163af3dd63960e01b8152918201523060248201526001600160a01b039091169063af3dd639906044016020604051808303816000875af1158015612335573d6000803e3d6000fd5b505050506040513d601f19601f820116820180604052508101906123599190613933565b50600a5460075460048054604051630fcb200d60e21b81526001600160a01b0393841692810192909252602482015260606044820152600060648201819052929190911690633f2c8034906084016020604051808303816000875af11580156123c6573d6000803e3d6000fd5b505050506040513d601f19601f820116820180604052508101906123ea91906139f2565b604080516060810182526001600160a01b038381168252602080830188815283850188905260045460009081526011835294909420835181546001600160a01b03191693169290921782559251805194955091939092612451926001850192910190612e71565b506040820151805161246d916002840191602090910190612e71565b5050600480549150600061248083613adf565b9091555050600980546001810182556000919091527f6e1540171b6c0c960b71a7020d9f60077f6af931a8bbf590da0223dacf75c7af0180546001600160a01b0319166001600160a01b0383161790556040517f915708fb7ee5da90b08a28b58664546eae63c0680f363ea2cc38c345f5be29409061250490859085904290613b0b565b60405180910390a1505050565b600c546000906001600160a01b03166324d7806c336040516001600160e01b031960e084901b1681526001600160a01b039091166004820152602401602060405180830381865afa15801561256a573d6000803e3d6000fd5b505050506040513d601f19601f8201168201806040525081019061258e9190613884565b6125aa5760405162461bcd60e51b8152600401610781906138a1565b600082116126065760405162461bcd60e51b815260206004820152602360248201527f546f74616c20737570706c79206d75737420626520677265617465722074686160448201526206e20360ec1b6064820152608401610781565b600380546000918261261783613adf565b91905055905061264d600660009054906101000a90046001600160a01b0316828560405180602001604052806000815250612921565b604080516080810182528781526020808201889052818301879052606082018690526000848152600f909152919091208151819061268b9082613b89565b50602082015160018201906126a09082613b89565b50604082015160028201906126b59082613b89565b506060820151816003015590505080600d876040516126d49190613c48565b9081526020016040518091039020866040516126f09190613c48565b908152602001604051809103902081905550807fa09f8ded7663b6558550b417380d535c092265d90b5415bd6d16d8c95b027d1387878660405161273693929190613c64565b60405180910390a295945050505050565b6001600160a01b03918216600090815260016020908152604080832093909416825291909152205460ff1690565b336001600160a01b038616811480159061279657506127948682612747565b155b156127c75760405163711bec9160e11b81526001600160a01b03808316600483015287166024820152604401610781565b610d0b868686868661297e565b60006001600160e01b03198216636cdb3d1360e11b148061280557506001600160e01b031982166303a24d0760e21b145b806105e457506301ffc9a760e01b6001600160e01b03198316146105e4565b6001600160a01b03841661284e57604051632bfa23e760e11b815260006004820152602401610781565b6001600160a01b03851661287757604051626a0d4560e21b815260006004820152602401610781565b6128848585858585612a0c565b5050505050565b6001600160a01b0382166128b45760405162ced3e160e81b815260006004820152602401610781565b6001600160a01b03838116600081815260016020908152604080832094871680845294825291829020805460ff191686151590811790915591519182527f17307eab39ab6107e8899845ad3d59bd9653f200f220920489ca2b5937696c31910160405180910390a3505050565b6001600160a01b03841661294b57604051632bfa23e760e11b815260006004820152602401610781565b60408051600180825260208201869052818301908152606082018590526080820190925290610d0b600087848487612a0c565b6001600160a01b0384166129a857604051632bfa23e760e11b815260006004820152602401610781565b6001600160a01b0385166129d157604051626a0d4560e21b815260006004820152602401610781565b60408051600180825260208201869052818301908152606082018590526080820190925290612a038787848487612a0c565b50505050505050565b612a1885858585612a5f565b6001600160a01b038416156128845782513390600103612a515760208481015190840151612a4a838989858589612c64565b5050610d0b565b610d0b818787878787612d88565b8051825114612a8e5781518151604051635b05999160e01b815260048101929092526024820152604401610781565b3360005b8351811015612b94576020818102858101820151908501909101516001600160a01b03881615612b45576000828152602081815260408083206001600160a01b038c16845290915290205481811015612b1e576040516303dee4c560e01b81526001600160a01b038a166004820152602481018290526044810183905260648101849052608401610781565b6000838152602081815260408083206001600160a01b038d16845290915290209082900390555b6001600160a01b03871615612b8a576000828152602081815260408083206001600160a01b038b16845290915281208054839290612b84908490613c89565b90915550505b5050600101612a92565b508251600103612c155760208301516000906020840151909150856001600160a01b0316876001600160a01b0316846001600160a01b03167fc3d58168c5ae7397731d063d5bbf3d657854427343f4c083240f7aacaa2d0f628585604051612c06929190918252602082015260400190565b60405180910390a45050612884565b836001600160a01b0316856001600160a01b0316826001600160a01b03167f4a39dc06d4c0dbc64b70af90fd698a233a518aa5d07e595d983b8c0526c8f7fb8686604051611aa6929190613c9c565b6001600160a01b0384163b15610d0b5760405163f23a6e6160e01b81526001600160a01b0385169063f23a6e6190612ca89089908990889088908890600401613cc1565b6020604051808303816000875af1925050508015612ce3575060408051601f3d908101601f19168201909252612ce091810190613cfb565b60015b612d4c573d808015612d11576040519150601f19603f3d011682016040523d82523d6000602084013e612d16565b606091505b508051600003612d4457604051632bfa23e760e11b81526001600160a01b0386166004820152602401610781565b805181602001fd5b6001600160e01b0319811663f23a6e6160e01b14612a0357604051632bfa23e760e11b81526001600160a01b0386166004820152602401610781565b6001600160a01b0384163b15610d0b5760405163bc197c8160e01b81526001600160a01b0385169063bc197c8190612dcc9089908990889088908890600401613d18565b6020604051808303816000875af1925050508015612e07575060408051601f3d908101601f19168201909252612e0491810190613cfb565b60015b612e35573d808015612d11576040519150601f19603f3d011682016040523d82523d6000602084013e612d16565b6001600160e01b0319811663bc197c8160e01b14612a0357604051632bfa23e760e11b81526001600160a01b0386166004820152602401610781565b828054828255906000526020600020908101928215612eac579160200282015b82811115612eac578251825591602001919060010190612e91565b50612eb8929150612ebc565b5090565b5b80821115612eb85760008155600101612ebd565b6001600160a01b0381168114612ee657600080fd5b50565b60008060408385031215612efc57600080fd5b8235612f0781612ed1565b946020939093013593505050565b6001600160e01b031981168114612ee657600080fd5b600060208284031215612f3d57600080fd5b8135612f4881612f15565b9392505050565b6020808252825182820181905260009190848201906040850190845b81811015612f905783516001600160a01b031683529284019291840191600101612f6b565b50909695505050505050565b600060208284031215612fae57600080fd5b5035919050565b60005b83811015612fd0578181015183820152602001612fb8565b50506000910152565b60008151808452612ff1816020860160208601612fb5565b601f01601f19169290920160200192915050565b602081526000612f486020830184612fd9565b60008060008060006080868803121561303057600080fd5b853561303b81612ed1565b9450602086013561304b81612ed1565b93506040860135925060608601356001600160401b038082111561306e57600080fd5b818801915088601f83011261308257600080fd5b81358181111561309157600080fd5b8960208285010111156130a357600080fd5b9699959850939650602001949392505050565b6000602082840312156130c857600080fd5b8135612f4881612ed1565b634e487b7160e01b600052602160045260246000fd5b6005811061310757634e487b7160e01b600052602160045260246000fd5b9052565b81516001600160a01b031681526101608101602083015161313760208401826001600160a01b03169052565b506040830151604083015260608301516060830152608083015161315f608084018215159052565b5060a083015160a083015260c083015160c083015260e083015161318660e08401826130e9565b506101008381015115159083015261012080840151151590830152610140928301511515929091019190915290565b634e487b7160e01b600052604160045260246000fd5b604051601f8201601f191681016001600160401b03811182821017156131f3576131f36131b5565b604052919050565b60006001600160401b03821115613214576132146131b5565b5060051b60200190565b600082601f83011261322f57600080fd5b8135602061324461323f836131fb565b6131cb565b8083825260208201915060208460051b87010193508684111561326657600080fd5b602086015b84811015613282578035835291830191830161326b565b509695505050505050565b600082601f83011261329e57600080fd5b81356001600160401b038111156132b7576132b76131b5565b6132ca601f8201601f19166020016131cb565b8181528460208386010111156132df57600080fd5b816020850160208301376000918101602001919091529392505050565b600080600080600060a0868803121561331457600080fd5b853561331f81612ed1565b9450602086013561332f81612ed1565b935060408601356001600160401b038082111561334b57600080fd5b61335789838a0161321e565b9450606088013591508082111561336d57600080fd5b61337989838a0161321e565b9350608088013591508082111561338f57600080fd5b5061339c8882890161328d565b9150509295509295909350565b6000806000606084860312156133be57600080fd5b833592506020840135915060408401356133d781612ed1565b809150509250925092565b6000806000606084860312156133f757600080fd5b833561340281612ed1565b95602085013595506040909401359392505050565b6000806040838503121561342a57600080fd5b82356001600160401b038082111561344157600080fd5b818501915085601f83011261345557600080fd5b8135602061346561323f836131fb565b82815260059290921b8401810191818101908984111561348457600080fd5b948201945b838610156134ab57853561349c81612ed1565b82529482019490820190613489565b965050860135925050808211156134c157600080fd5b506134ce8582860161321e565b9150509250929050565b60008151808452602080850194506020840160005b83811015613509578151875295820195908201906001016134ed565b509495945050505050565b602081526000612f4860208301846134d8565b60008060006060848603121561353c57600080fd5b83359250602084013561354e81612ed1565b929592945050506040919091013590565b8015158114612ee657600080fd5b6000806040838503121561358057600080fd5b823561358b81612ed1565b9150602083013561359b8161355f565b809150509250929050565b600080604083850312156135b957600080fd5b50508035926020909101359150565b600080600080600060a086880312156135e057600080fd5b853594506020860135935060408601356135f981612ed1565b92506060860135915060808601356136108161355f565b809150509295509295909350565b6000806040838503121561363157600080fd5b82359150602083013561359b81612ed1565b602080825282516001600160a01b0316828201528201516060604083015260009061367160808401826134d8565b90506040840151601f19848303016060850152610d9682826134d8565b6080815260006136a16080830187612fd9565b82810360208401526136b38187612fd9565b905082810360408401526136c78186612fd9565b91505082606083015295945050505050565b600080604083850312156136ec57600080fd5b82356001600160401b038082111561370357600080fd5b61370f8683870161321e565b935060208501359150808211156134c157600080fd5b6000806000806080858703121561373b57600080fd5b84356001600160401b038082111561375257600080fd5b61375e8883890161328d565b9550602087013591508082111561377457600080fd5b6137808883890161328d565b9450604087013591508082111561379657600080fd5b506137a38782880161328d565b949793965093946060013593505050565b600080604083850312156137c757600080fd5b82356137d281612ed1565b9150602083013561359b81612ed1565b600080600080600060a086880312156137fa57600080fd5b853561380581612ed1565b9450602086013561381581612ed1565b9350604086013592506060860135915060808601356001600160401b0381111561383e57600080fd5b61339c8882890161328d565b600181811c9082168061385e57607f821691505b60208210810361387e57634e487b7160e01b600052602260045260246000fd5b50919050565b60006020828403121561389657600080fd5b8151612f488161355f565b6020808252601c908201527f4c616e644d616e6167656d656e743a204e6f7420616e2061646d696e00000000604082015260600190565b600081548084526020808501945083600052602060002060005b83811015613509578154875295820195600191820191016138f2565b60408152600061392160408301856138d8565b8281036020840152610d9681856138d8565b60006020828403121561394557600080fd5b5051919050565b634e487b7160e01b600052603260045260246000fd5b6000602080838503121561397557600080fd5b82516001600160401b0381111561398b57600080fd5b8301601f8101851361399c57600080fd5b80516139aa61323f826131fb565b81815260059190911b820183019083810190878311156139c957600080fd5b928401925b828410156139e7578351825292840192908401906139ce565b979650505050505050565b600060208284031215613a0457600080fd5b8151612f4881612ed1565b60006020808385031215613a2257600080fd5b82516001600160401b03811115613a3857600080fd5b8301601f81018513613a4957600080fd5b8051613a5761323f826131fb565b81815260059190911b82018301908381019087831115613a7657600080fd5b928401925b828410156139e7578351613a8e81612ed1565b82529284019290840190613a7b565b6020808252601290820152714e6f7420656e6f7567682062616c616e636560701b604082015260600190565b634e487b7160e01b600052601160045260246000fd5b600060018201613af157613af1613ac9565b5060010190565b818103818111156105e4576105e4613ac9565b606081526000613b1e60608301866134d8565b8281036020840152613b3081866134d8565b915050826040830152949350505050565b601f821115610a4e576000816000526020600020601f850160051c81016020861015613b6a5750805b601f850160051c820191505b81811015610d0b57828155600101613b76565b81516001600160401b03811115613ba257613ba26131b5565b613bb681613bb0845461384a565b84613b41565b602080601f831160018114613beb5760008415613bd35750858301515b600019600386901b1c1916600185901b178555610d0b565b600085815260208120601f198616915b82811015613c1a57888601518255948401946001909101908401613bfb565b5085821015613c385787850151600019600388901b60f8161c191681555b5050505050600190811b01905550565b60008251613c5a818460208701612fb5565b9190910192915050565b606081526000613c776060830186612fd9565b8281036020840152613b308186612fd9565b808201808211156105e4576105e4613ac9565b604081526000613caf60408301856134d8565b8281036020840152610d9681856134d8565b6001600160a01b03868116825285166020820152604081018490526060810183905260a0608082018190526000906139e790830184612fd9565b600060208284031215613d0d57600080fd5b8151612f4881612f15565b6001600160a01b0386811682528516602082015260a060408201819052600090613d44908301866134d8565b8281036060840152613d5681866134d8565b90508281036080840152613d6a8185612fd9565b9897505050505050505056fea2646970667358221220bfec308a80303508fe9a09abab38cc7900344f8ca2790a33067debcc22a732d764736f6c63430008190033",
  "linkReferences": {},
  "deployedLinkReferences": {}
}