{
  "_format": "hh-sol-artifact-1",
  "contractName": "LandAssetManager",
  "sourceName": "contracts/LandAssetManager.sol",
  "abi": [
    {
      "inputs": [
        {
          "internalType": "string",
          "name": "uri",
          "type": "string"
        },
        {
          "internalType": "address",
          "name": "_treasuryWallet",
          "type": "address"
        },
        {
          "internalType": "address",
          "name": "auth",
          "type": "address"
        }
      ],
      "stateMutability": "nonpayable",
      "type": "constructor"
    },
    {
      "inputs": [
        {
          "internalType": "address",
          "name": "sender",
          "type": "address"
        },
        {
          "internalType": "uint256",
          "name": "balance",
          "type": "uint256"
        },
        {
          "internalType": "uint256",
          "name": "needed",
          "type": "uint256"
        },
        {
          "internalType": "uint256",
          "name": "tokenId",
          "type": "uint256"
        }
      ],
      "name": "ERC1155InsufficientBalance",
      "type": "error"
    },
    {
      "inputs": [
        {
          "internalType": "address",
          "name": "approver",
          "type": "address"
        }
      ],
      "name": "ERC1155InvalidApprover",
      "type": "error"
    },
    {
      "inputs": [
        {
          "internalType": "uint256",
          "name": "idsLength",
          "type": "uint256"
        },
        {
          "internalType": "uint256",
          "name": "valuesLength",
          "type": "uint256"
        }
      ],
      "name": "ERC1155InvalidArrayLength",
      "type": "error"
    },
    {
      "inputs": [
        {
          "internalType": "address",
          "name": "operator",
          "type": "address"
        }
      ],
      "name": "ERC1155InvalidOperator",
      "type": "error"
    },
    {
      "inputs": [
        {
          "internalType": "address",
          "name": "receiver",
          "type": "address"
        }
      ],
      "name": "ERC1155InvalidReceiver",
      "type": "error"
    },
    {
      "inputs": [
        {
          "internalType": "address",
          "name": "sender",
          "type": "address"
        }
      ],
      "name": "ERC1155InvalidSender",
      "type": "error"
    },
    {
      "inputs": [
        {
          "internalType": "address",
          "name": "operator",
          "type": "address"
        },
        {
          "internalType": "address",
          "name": "owner",
          "type": "address"
        }
      ],
      "name": "ERC1155MissingApprovalForAll",
      "type": "error"
    },
    {
      "anonymous": false,
      "inputs": [
        {
          "indexed": true,
          "internalType": "address",
          "name": "account",
          "type": "address"
        },
        {
          "indexed": true,
          "internalType": "address",
          "name": "operator",
          "type": "address"
        },
        {
          "indexed": false,
          "internalType": "bool",
          "name": "approved",
          "type": "bool"
        }
      ],
      "name": "ApprovalForAll",
      "type": "event"
    },
    {
      "anonymous": false,
      "inputs": [
        {
          "indexed": false,
          "internalType": "uint256[]",
          "name": "parcelIds",
          "type": "uint256[]"
        },
        {
          "indexed": false,
          "internalType": "uint256[]",
          "name": "parcelAmount",
          "type": "uint256[]"
        },
        {
          "indexed": false,
          "internalType": "uint256",
          "name": "timestamp",
          "type": "uint256"
        }
      ],
      "name": "PlotCreated",
      "type": "event"
    },
    {
      "anonymous": false,
      "inputs": [
        {
          "indexed": true,
          "internalType": "uint256",
          "name": "tokenId",
          "type": "uint256"
        },
        {
          "indexed": false,
          "internalType": "string",
          "name": "blockInfo",
          "type": "string"
        },
        {
          "indexed": false,
          "internalType": "string",
          "name": "parcelInfo",
          "type": "string"
        },
        {
          "indexed": false,
          "internalType": "uint256",
          "name": "totalSupply",
          "type": "uint256"
        }
      ],
      "name": "TokenCreated",
      "type": "event"
    },
    {
      "anonymous": false,
      "inputs": [
        {
          "indexed": true,
          "internalType": "uint256",
          "name": "requestId",
          "type": "uint256"
        },
        {
          "indexed": true,
          "internalType": "address",
          "name": "approver",
          "type": "address"
        },
        {
          "indexed": false,
          "internalType": "uint256",
          "name": "role",
          "type": "uint256"
        },
        {
          "indexed": false,
          "internalType": "bool",
          "name": "isFullyApproved",
          "type": "bool"
        },
        {
          "indexed": false,
          "internalType": "uint256",
          "name": "timestamp",
          "type": "uint256"
        }
      ],
      "name": "TransferApproved",
      "type": "event"
    },
    {
      "anonymous": false,
      "inputs": [
        {
          "indexed": true,
          "internalType": "address",
          "name": "operator",
          "type": "address"
        },
        {
          "indexed": true,
          "internalType": "address",
          "name": "from",
          "type": "address"
        },
        {
          "indexed": true,
          "internalType": "address",
          "name": "to",
          "type": "address"
        },
        {
          "indexed": false,
          "internalType": "uint256[]",
          "name": "ids",
          "type": "uint256[]"
        },
        {
          "indexed": false,
          "internalType": "uint256[]",
          "name": "values",
          "type": "uint256[]"
        }
      ],
      "name": "TransferBatch",
      "type": "event"
    },
    {
      "anonymous": false,
      "inputs": [
        {
          "indexed": true,
          "internalType": "uint256",
          "name": "requestId",
          "type": "uint256"
        },
        {
          "indexed": true,
          "internalType": "address",
          "name": "from",
          "type": "address"
        },
        {
          "indexed": true,
          "internalType": "address",
          "name": "to",
          "type": "address"
        },
        {
          "indexed": false,
          "internalType": "uint256",
          "name": "tokenId",
          "type": "uint256"
        },
        {
          "indexed": false,
          "internalType": "uint256",
          "name": "amount",
          "type": "uint256"
        }
      ],
      "name": "TransferExecuted",
      "type": "event"
    },
    {
      "anonymous": false,
      "inputs": [
        {
          "indexed": true,
          "internalType": "uint256",
          "name": "requestId",
          "type": "uint256"
        },
        {
          "indexed": true,
          "internalType": "address",
          "name": "from",
          "type": "address"
        },
        {
          "indexed": true,
          "internalType": "address",
          "name": "to",
          "type": "address"
        },
        {
          "indexed": false,
          "internalType": "uint256",
          "name": "tokenId",
          "type": "uint256"
        },
        {
          "indexed": false,
          "internalType": "uint256",
          "name": "amount",
          "type": "uint256"
        },
        {
          "indexed": false,
          "internalType": "bool",
          "name": "isPlotTransfer",
          "type": "bool"
        },
        {
          "indexed": false,
          "internalType": "uint256",
          "name": "plotId",
          "type": "uint256"
        }
      ],
      "name": "TransferRequestCreated",
      "type": "event"
    },
    {
      "anonymous": false,
      "inputs": [
        {
          "indexed": true,
          "internalType": "address",
          "name": "operator",
          "type": "address"
        },
        {
          "indexed": true,
          "internalType": "address",
          "name": "from",
          "type": "address"
        },
        {
          "indexed": true,
          "internalType": "address",
          "name": "to",
          "type": "address"
        },
        {
          "indexed": false,
          "internalType": "uint256",
          "name": "id",
          "type": "uint256"
        },
        {
          "indexed": false,
          "internalType": "uint256",
          "name": "value",
          "type": "uint256"
        }
      ],
      "name": "TransferSingle",
      "type": "event"
    },
    {
      "anonymous": false,
      "inputs": [
        {
          "indexed": false,
          "internalType": "string",
          "name": "value",
          "type": "string"
        },
        {
          "indexed": true,
          "internalType": "uint256",
          "name": "id",
          "type": "uint256"
        }
      ],
      "name": "URI",
      "type": "event"
    },
    {
      "inputs": [
        {
          "internalType": "address",
          "name": "account",
          "type": "address"
        },
        {
          "internalType": "uint256",
          "name": "id",
          "type": "uint256"
        }
      ],
      "name": "balanceOf",
      "outputs": [
        {
          "internalType": "uint256",
          "name": "",
          "type": "uint256"
        }
      ],
      "stateMutability": "view",
      "type": "function"
    },
    {
      "inputs": [
        {
          "internalType": "address[]",
          "name": "accounts",
          "type": "address[]"
        },
        {
          "internalType": "uint256[]",
          "name": "ids",
          "type": "uint256[]"
        }
      ],
      "name": "balanceOfBatch",
      "outputs": [
        {
          "internalType": "uint256[]",
          "name": "",
          "type": "uint256[]"
        }
      ],
      "stateMutability": "view",
      "type": "function"
    },
    {
      "inputs": [
        {
          "internalType": "string",
          "name": "blockInfo",
          "type": "string"
        },
        {
          "internalType": "string",
          "name": "parcelInfo",
          "type": "string"
        },
        {
          "internalType": "string",
          "name": "tokenURI",
          "type": "string"
        },
        {
          "internalType": "uint256",
          "name": "totalSupply",
          "type": "uint256"
        }
      ],
      "name": "createBlockParcelToken",
      "outputs": [
        {
          "internalType": "uint256",
          "name": "",
          "type": "uint256"
        }
      ],
      "stateMutability": "nonpayable",
      "type": "function"
    },
    {
      "inputs": [
        {
          "internalType": "address",
          "name": "signerWallet",
          "type": "address"
        },
        {
          "internalType": "uint256",
          "name": "requestIdForApproval",
          "type": "uint256"
        },
        {
          "internalType": "uint256",
          "name": "_role",
          "type": "uint256"
        }
      ],
      "name": "delegateApproveTransfer",
      "outputs": [],
      "stateMutability": "nonpayable",
      "type": "function"
    },
    {
      "inputs": [
        {
          "internalType": "uint256",
          "name": "_requestId",
          "type": "uint256"
        }
      ],
      "name": "finalizeParcelTransfer",
      "outputs": [],
      "stateMutability": "nonpayable",
      "type": "function"
    },
    {
      "inputs": [
        {
          "internalType": "uint256",
          "name": "_requestId",
          "type": "uint256"
        }
      ],
      "name": "finalizePlotTransfer",
      "outputs": [],
      "stateMutability": "nonpayable",
      "type": "function"
    },
    {
      "inputs": [
        {
          "internalType": "uint256",
          "name": "_tokenId",
          "type": "uint256"
        }
      ],
      "name": "getBlockParcelTokenURI",
      "outputs": [
        {
          "internalType": "string",
          "name": "",
          "type": "string"
        }
      ],
      "stateMutability": "view",
      "type": "function"
    },
    {
      "inputs": [
        {
          "internalType": "uint256",
          "name": "_tokenId",
          "type": "uint256"
        }
      ],
      "name": "getLandInfo",
      "outputs": [
        {
          "components": [
            {
              "internalType": "string",
              "name": "blockInfo",
              "type": "string"
            },
            {
              "internalType": "string",
              "name": "parcelInfo",
              "type": "string"
            },
            {
              "internalType": "string",
              "name": "blockParcelTokenURI",
              "type": "string"
            },
            {
              "internalType": "uint256",
              "name": "totalSupply",
              "type": "uint256"
            },
            {
              "internalType": "uint256[]",
              "name": "plotAllocation",
              "type": "uint256[]"
            }
          ],
          "internalType": "struct LandAssetManager.LandInfo",
          "name": "",
          "type": "tuple"
        }
      ],
      "stateMutability": "view",
      "type": "function"
    },
    {
      "inputs": [],
      "name": "getListOfTotalPlots",
      "outputs": [
        {
          "internalType": "address[]",
          "name": "",
          "type": "address[]"
        }
      ],
      "stateMutability": "view",
      "type": "function"
    },
    {
      "inputs": [
        {
          "internalType": "uint256",
          "name": "_plotId",
          "type": "uint256"
        },
        {
          "internalType": "address",
          "name": "_user",
          "type": "address"
        }
      ],
      "name": "getOwnershipPercentage",
      "outputs": [
        {
          "internalType": "uint256",
          "name": "",
          "type": "uint256"
        }
      ],
      "stateMutability": "view",
      "type": "function"
    },
    {
      "inputs": [
        {
          "internalType": "uint256",
          "name": "_plotId",
          "type": "uint256"
        }
      ],
      "name": "getPlotAccountInfo",
      "outputs": [
        {
          "components": [
            {
              "internalType": "address",
              "name": "plotAccount",
              "type": "address"
            },
            {
              "internalType": "uint256[]",
              "name": "parcelIds",
              "type": "uint256[]"
            },
            {
              "internalType": "uint256[]",
              "name": "parcelAmounts",
              "type": "uint256[]"
            }
          ],
          "internalType": "struct LandAssetManager.PlotInfo",
          "name": "",
          "type": "tuple"
        }
      ],
      "stateMutability": "view",
      "type": "function"
    },
    {
      "inputs": [
        {
          "internalType": "uint256",
          "name": "_plotId",
          "type": "uint256"
        },
        {
          "internalType": "uint256",
          "name": "_parcelId",
          "type": "uint256"
        }
      ],
      "name": "getPlotAccountParcelShareholders",
      "outputs": [
        {
          "internalType": "address[]",
          "name": "",
          "type": "address[]"
        }
      ],
      "stateMutability": "view",
      "type": "function"
    },
    {
      "inputs": [
        {
          "internalType": "uint256",
          "name": "_plotId",
          "type": "uint256"
        },
        {
          "internalType": "uint256",
          "name": "_parcelId",
          "type": "uint256"
        }
      ],
      "name": "getPlotAccountParcelTotalShares",
      "outputs": [
        {
          "internalType": "uint256",
          "name": "",
          "type": "uint256"
        }
      ],
      "stateMutability": "view",
      "type": "function"
    },
    {
      "inputs": [
        {
          "internalType": "uint256",
          "name": "_plotId",
          "type": "uint256"
        },
        {
          "internalType": "address",
          "name": "_user",
          "type": "address"
        },
        {
          "internalType": "uint256",
          "name": "_parcel",
          "type": "uint256"
        }
      ],
      "name": "getPlotAccountUserParcels",
      "outputs": [
        {
          "internalType": "uint256[]",
          "name": "",
          "type": "uint256[]"
        }
      ],
      "stateMutability": "view",
      "type": "function"
    },
    {
      "inputs": [
        {
          "internalType": "uint256",
          "name": "_plotId",
          "type": "uint256"
        },
        {
          "internalType": "uint256",
          "name": "_parcelId",
          "type": "uint256"
        },
        {
          "internalType": "address",
          "name": "_user",
          "type": "address"
        }
      ],
      "name": "getPlotAccountUserShares",
      "outputs": [
        {
          "internalType": "uint256",
          "name": "",
          "type": "uint256"
        }
      ],
      "stateMutability": "view",
      "type": "function"
    },
    {
      "inputs": [
        {
          "internalType": "uint256",
          "name": "_tokenId",
          "type": "uint256"
        }
      ],
      "name": "getPlotAllocation",
      "outputs": [
        {
          "internalType": "uint256[]",
          "name": "",
          "type": "uint256[]"
        }
      ],
      "stateMutability": "view",
      "type": "function"
    },
    {
      "inputs": [],
      "name": "getPlotAndTokenIdInfo",
      "outputs": [
        {
          "internalType": "uint256",
          "name": "",
          "type": "uint256"
        },
        {
          "internalType": "uint256",
          "name": "",
          "type": "uint256"
        }
      ],
      "stateMutability": "view",
      "type": "function"
    },
    {
      "inputs": [
        {
          "internalType": "address",
          "name": "account",
          "type": "address"
        },
        {
          "internalType": "address",
          "name": "operator",
          "type": "address"
        }
      ],
      "name": "isApprovedForAll",
      "outputs": [
        {
          "internalType": "bool",
          "name": "",
          "type": "bool"
        }
      ],
      "stateMutability": "view",
      "type": "function"
    },
    {
      "inputs": [
        {
          "internalType": "address",
          "name": "",
          "type": "address"
        }
      ],
      "name": "isPlotRegistered",
      "outputs": [
        {
          "internalType": "bool",
          "name": "",
          "type": "bool"
        }
      ],
      "stateMutability": "view",
      "type": "function"
    },
    {
      "inputs": [
        {
          "internalType": "uint256",
          "name": "",
          "type": "uint256"
        }
      ],
      "name": "listOfTotalPlots",
      "outputs": [
        {
          "internalType": "address",
          "name": "",
          "type": "address"
        }
      ],
      "stateMutability": "view",
      "type": "function"
    },
    {
      "inputs": [
        {
          "internalType": "address",
          "name": "operator",
          "type": "address"
        },
        {
          "internalType": "address",
          "name": "from",
          "type": "address"
        },
        {
          "internalType": "uint256",
          "name": "tokenId",
          "type": "uint256"
        },
        {
          "internalType": "bytes",
          "name": "data",
          "type": "bytes"
        }
      ],
      "name": "onERC721Received",
      "outputs": [
        {
          "internalType": "bytes4",
          "name": "",
          "type": "bytes4"
        }
      ],
      "stateMutability": "pure",
      "type": "function"
    },
    {
      "inputs": [
        {
          "internalType": "uint256",
          "name": "_plotId",
          "type": "uint256"
        }
      ],
      "name": "plotFinalize",
      "outputs": [],
      "stateMutability": "nonpayable",
      "type": "function"
    },
    {
      "inputs": [
        {
          "internalType": "uint256[]",
          "name": "parcelIds",
          "type": "uint256[]"
        },
        {
          "internalType": "uint256[]",
          "name": "parcelAmounts",
          "type": "uint256[]"
        }
      ],
      "name": "plotInitiate",
      "outputs": [],
      "stateMutability": "nonpayable",
      "type": "function"
    },
    {
      "inputs": [],
      "name": "plotNft",
      "outputs": [
        {
          "internalType": "contract IERC721",
          "name": "",
          "type": "address"
        }
      ],
      "stateMutability": "view",
      "type": "function"
    },
    {
      "inputs": [],
      "name": "plotPassAddress",
      "outputs": [
        {
          "internalType": "address",
          "name": "",
          "type": "address"
        }
      ],
      "stateMutability": "view",
      "type": "function"
    },
    {
      "inputs": [],
      "name": "plotRegistry",
      "outputs": [
        {
          "internalType": "contract IPlotRegistry",
          "name": "",
          "type": "address"
        }
      ],
      "stateMutability": "view",
      "type": "function"
    },
    {
      "inputs": [
        {
          "internalType": "uint256",
          "name": "_parcelId",
          "type": "uint256"
        },
        {
          "internalType": "uint256",
          "name": "parcelAmount",
          "type": "uint256"
        },
        {
          "internalType": "address",
          "name": "to",
          "type": "address"
        },
        {
          "internalType": "uint256",
          "name": "_plotId",
          "type": "uint256"
        },
        {
          "internalType": "bool",
          "name": "isPlotTransfer",
          "type": "bool"
        }
      ],
      "name": "requestForParcelTransfer",
      "outputs": [],
      "stateMutability": "nonpayable",
      "type": "function"
    },
    {
      "inputs": [
        {
          "internalType": "uint256",
          "name": "_plotId",
          "type": "uint256"
        },
        {
          "internalType": "address",
          "name": "to",
          "type": "address"
        }
      ],
      "name": "requestForWholePlotTransfer",
      "outputs": [],
      "stateMutability": "nonpayable",
      "type": "function"
    },
    {
      "inputs": [],
      "name": "requestId",
      "outputs": [
        {
          "internalType": "uint256",
          "name": "",
          "type": "uint256"
        }
      ],
      "stateMutability": "view",
      "type": "function"
    },
    {
      "inputs": [
        {
          "internalType": "uint256",
          "name": "_requestId",
          "type": "uint256"
        }
      ],
      "name": "requestStatus",
      "outputs": [
        {
          "components": [
            {
              "internalType": "address",
              "name": "from",
              "type": "address"
            },
            {
              "internalType": "address",
              "name": "to",
              "type": "address"
            },
            {
              "internalType": "uint256",
              "name": "parcelId",
              "type": "uint256"
            },
            {
              "internalType": "uint256",
              "name": "parcelAmount",
              "type": "uint256"
            },
            {
              "internalType": "bool",
              "name": "isPlotTransfer",
              "type": "bool"
            },
            {
              "internalType": "uint256",
              "name": "plotId",
              "type": "uint256"
            },
            {
              "internalType": "uint256",
              "name": "timestamp",
              "type": "uint256"
            },
            {
              "internalType": "enum LandAssetManager.TransferStatus",
              "name": "status",
              "type": "uint8"
            },
            {
              "internalType": "bool",
              "name": "landAuthorityApproved",
              "type": "bool"
            },
            {
              "internalType": "bool",
              "name": "lawyerApproved",
              "type": "bool"
            },
            {
              "internalType": "bool",
              "name": "bankApproved",
              "type": "bool"
            }
          ],
          "internalType": "struct LandAssetManager.TransferRequest",
          "name": "",
          "type": "tuple"
        }
      ],
      "stateMutability": "view",
      "type": "function"
    },
    {
      "inputs": [
        {
          "internalType": "address",
          "name": "from",
          "type": "address"
        },
        {
          "internalType": "address",
          "name": "to",
          "type": "address"
        },
        {
          "internalType": "uint256[]",
          "name": "ids",
          "type": "uint256[]"
        },
        {
          "internalType": "uint256[]",
          "name": "values",
          "type": "uint256[]"
        },
        {
          "internalType": "bytes",
          "name": "data",
          "type": "bytes"
        }
      ],
      "name": "safeBatchTransferFrom",
      "outputs": [],
      "stateMutability": "nonpayable",
      "type": "function"
    },
    {
      "inputs": [
        {
          "internalType": "address",
          "name": "from",
          "type": "address"
        },
        {
          "internalType": "address",
          "name": "to",
          "type": "address"
        },
        {
          "internalType": "uint256",
          "name": "id",
          "type": "uint256"
        },
        {
          "internalType": "uint256",
          "name": "value",
          "type": "uint256"
        },
        {
          "internalType": "bytes",
          "name": "data",
          "type": "bytes"
        }
      ],
      "name": "safeTransferFrom",
      "outputs": [],
      "stateMutability": "nonpayable",
      "type": "function"
    },
    {
      "inputs": [
        {
          "internalType": "address",
          "name": "operator",
          "type": "address"
        },
        {
          "internalType": "bool",
          "name": "approved",
          "type": "bool"
        }
      ],
      "name": "setApprovalForAll",
      "outputs": [],
      "stateMutability": "nonpayable",
      "type": "function"
    },
    {
      "inputs": [
        {
          "internalType": "address",
          "name": "_plotRegistry",
          "type": "address"
        }
      ],
      "name": "setPlotRegistryContract",
      "outputs": [],
      "stateMutability": "nonpayable",
      "type": "function"
    },
    {
      "inputs": [
        {
          "internalType": "address",
          "name": "_addr",
          "type": "address"
        }
      ],
      "name": "setTreasuryWalletAddress",
      "outputs": [],
      "stateMutability": "nonpayable",
      "type": "function"
    },
    {
      "inputs": [
        {
          "internalType": "address",
          "name": "_addr",
          "type": "address"
        }
      ],
      "name": "setplotOwnershipContract",
      "outputs": [],
      "stateMutability": "nonpayable",
      "type": "function"
    },
    {
      "inputs": [
        {
          "internalType": "bytes4",
          "name": "interfaceId",
          "type": "bytes4"
        }
      ],
      "name": "supportsInterface",
      "outputs": [
        {
          "internalType": "bool",
          "name": "",
          "type": "bool"
        }
      ],
      "stateMutability": "view",
      "type": "function"
    },
    {
      "inputs": [],
      "name": "treasuryWallet",
      "outputs": [
        {
          "internalType": "address",
          "name": "",
          "type": "address"
        }
      ],
      "stateMutability": "view",
      "type": "function"
    },
    {
      "inputs": [
        {
          "internalType": "uint256",
          "name": "",
          "type": "uint256"
        }
      ],
      "name": "uri",
      "outputs": [
        {
          "internalType": "string",
          "name": "",
          "type": "string"
        }
      ],
      "stateMutability": "view",
      "type": "function"
    }
  ],
  "bytecode": "0x608060405234801561001057600080fd5b506040516143ed3803806143ed83398101604081905261002f91610115565b82610039816100d3565b506001600160a01b0382166100945760405162461bcd60e51b815260206004820152601760248201527f496e76616c69642074726561737572792077616c6c6574000000000000000000604482015260640160405180910390fd5b600680546001600160a01b039384166001600160a01b031991821617909155600c80549290931691811682179092556008805490921617905550610349565b60026100df828261028a565b5050565b634e487b7160e01b600052604160045260246000fd5b80516001600160a01b038116811461011057600080fd5b919050565b60008060006060848603121561012a57600080fd5b83516001600160401b038082111561014157600080fd5b818601915086601f83011261015557600080fd5b815181811115610167576101676100e3565b604051601f8201601f19908116603f0116810190838211818310171561018f5761018f6100e3565b816040528281526020935089848487010111156101ab57600080fd5b600091505b828210156101cd57848201840151818301850152908301906101b0565b60008484830101528097505050506101e68187016100f9565b935050506101f6604085016100f9565b90509250925092565b600181811c9082168061021357607f821691505b60208210810361023357634e487b7160e01b600052602260045260246000fd5b50919050565b601f821115610285576000816000526020600020601f850160051c810160208610156102625750805b601f850160051c820191505b818110156102815782815560010161026e565b5050505b505050565b81516001600160401b038111156102a3576102a36100e3565b6102b7816102b184546101ff565b84610239565b602080601f8311600181146102ec57600084156102d45750858301515b600019600386901b1c1916600185901b178555610281565b600085815260208120601f198616915b8281101561031b578886015182559484019460019091019084016102fc565b50858210156103395787850151600019600388901b60f8161c191681555b5050505050600190811b01905550565b614095806103586000396000f3fe608060405234801561001057600080fd5b506004361061023b5760003560e01c80636a4895ff1161013b578063a7994b58116100b8578063c5725f4b1161007c578063c5725f4b1461057b578063c572aad01461058e578063cea70844146105a1578063e985e9c5146105b4578063f242432a146105c757600080fd5b8063a7994b581461050f578063a900e23614610522578063bdcb031414610535578063bf5f71b814610548578063c2d4769d1461055b57600080fd5b806386365409116100ff57806386365409146104a6578063a22cb465146104c3578063a31a3a43146104d6578063a56eb790146104e9578063a738a285146104fc57600080fd5b80636a4895ff1461042a5780636f6f9bef1461043d5780636fbba4d91461045d57806378fe8890146104705780637b3b96731461049357600080fd5b80631c1118db116101c957806345b6453b1161018d57806345b6453b146103be5780634626402b146103de5780634e1273f4146103f15780635d7766bb146104045780635efd930b1461041757600080fd5b80631c1118db146103475780632eb2c2d614610372578063360f758214610385578063399db4d41461039857806340155f57146103ab57600080fd5b80630e89341c116102105780630e89341c146102a75780631379cf5c146102c7578063150b7a02146102dc578063193e9ecb146103145780631a3132021461032757600080fd5b80626d6cae14610240578062fdd58e1461025c57806301ffc9a71461026f5780630d1dfd0814610292575b600080fd5b61024960055481565b6040519081526020015b60405180910390f35b61024961026a36600461319e565b6105da565b61028261027d3660046131e0565b610602565b6040519015158152602001610253565b61029a61060d565b6040516102539190613204565b6102ba6102b5366004613251565b61066f565b60405161025391906132ba565b6102da6102d5366004613251565b610703565b005b6102fb6102ea3660046132cd565b630a85bd0160e11b95945050505050565b6040516001600160e01b03199091168152602001610253565b6102da61032236600461336b565b610a6b565b61033a610335366004613251565b610b23565b60405161025391906133c0565b60075461035a906001600160a01b031681565b6040516001600160a01b039091168152602001610253565b6102da6103803660046135b1565b610cc4565b61024961039336600461365e565b610d2b565b6102da6103a6366004613697565b610db7565b6102da6103b936600461336b565b610fd4565b6103d16103cc366004613251565b611096565b6040516102539190613708565b60065461035a906001600160a01b031681565b6103d16103ff36600461371b565b6110fa565b600b5461035a906001600160a01b031681565b6102da61042536600461336b565b6111c6565b6102da610438366004613251565b61127e565b61045061044b366004613251565b611464565b60405161025391906137dc565b6102ba61046b366004613251565b6116cd565b61028261047e36600461336b565b600e6020526000908152604090205460ff1681565b6103d16104a136600461385b565b6116ed565b6104ae611776565b60408051928352602083019190915201610253565b6102da6104d13660046138a1565b61181d565b61035a6104e4366004613251565b61182c565b6102da6104f7366004613251565b611856565b61029a61050a3660046138da565b611c0e565b6102da61051d3660046138fc565b611c97565b600a5461035a906001600160a01b031681565b6102496105433660046138da565b611ee1565b610249610556366004613952565b611f5d565b61056e610569366004613251565b611f9d565b6040516102539190613977565b6102da610589366004613952565b6120a5565b6102da61059c3660046139c2565b61242c565b6102496105af366004613a0e565b6127c4565b6102826105c2366004613a9d565b6129ed565b6102da6105d5366004613acb565b612a1b565b6000818152602081815260408083206001600160a01b03861684529091529020545b92915050565b60006105fc82612a7a565b6060600980548060200260200160405190810160405280929190818152602001828054801561066557602002820191906000526020600020905b81546001600160a01b03168152600190910190602001808311610647575b5050505050905090565b60606002805461067e90613b33565b80601f01602080910402602001604051908101604052809291908181526020018280546106aa90613b33565b80156106f75780601f106106cc576101008083540402835291602001916106f7565b820191906000526020600020905b8154815290600101906020018083116106da57829003601f168201915b50505050509050919050565b600c546001600160a01b03166324d7806c336040516001600160e01b031960e084901b1681526001600160a01b039091166004820152602401602060405180830381865afa158015610759573d6000803e3d6000fd5b505050506040513d601f19601f8201168201806040525081019061077d9190613b6d565b6107a25760405162461bcd60e51b815260040161079990613b8a565b60405180910390fd5b6000818152601160209081526040808320546001600160a01b0316808452600e9092529091205460ff16156108125760405162461bcd60e51b8152602060048201526016602482015275141b1bdd08185b1c9958591e48199a5b985b1a5e995960521b6044820152606401610799565b6001600160a01b038181166000818152600e602052604090819020805460ff191660011790556008549051632b2e05c160e01b81529216600483015290632b2e05c190602401600060405180830381600087803b15801561087257600080fd5b505af1158015610886573d6000803e3d6000fd5b5050600b546001600160a01b031691506323b872dd905030336040516001600160e01b031960e085901b1681526001600160a01b0392831660048201529116602482015260448101859052606401600060405180830381600087803b1580156108ee57600080fd5b505af1158015610902573d6000803e3d6000fd5b505050506109df6109103390565b600084815260116020908152604091829020600101805483518184028101840190945280845286939283018282801561096857602002820191906000526020600020905b815481526020019060010190808311610954575b505050600088815260116020908152604091829020600201805483518184028101840190945280845292945092508301828280156109c557602002820191906000526020600020905b8154815260200190600101908083116109b1575b505050505060405180602001604052806000815250610cc4565b600082815260116020526040908190209051632187c29560e11b81526001600160a01b0383169163430f852a91610a23916001810191600290910190600401613bf7565b6020604051808303816000875af1158015610a42573d6000803e3d6000fd5b505050506040513d601f19601f82011682018060405250810190610a669190613c1c565b505050565b600c546001600160a01b03166324d7806c336040516001600160e01b031960e084901b1681526001600160a01b039091166004820152602401602060405180830381865afa158015610ac1573d6000803e3d6000fd5b505050506040513d601f19601f82011682018060405250810190610ae59190613b6d565b610b015760405162461bcd60e51b815260040161079990613b8a565b600a80546001600160a01b0319166001600160a01b0392909216919091179055565b6040805161016081018252600080825260208201819052918101829052606081018290526080810182905260a0810182905260c0810182905260e08101829052610100810182905261012081018290526101408101919091526000828152601060205260409020546001600160a01b03163314610be25760405162461bcd60e51b815260206004820152601d60248201527f4e6f74207468652073656e646572206f662074686520726571756573740000006044820152606401610799565b60008281526010602090815260409182902082516101608101845281546001600160a01b039081168252600183015416928101929092526002810154928201929092526003820154606082015260048083015460ff90811615156080840152600584015460a0840152600684015460c0840152600784015492939260e0850192911690811115610c7457610c74613388565b6004811115610c8557610c85613388565b81526007919091015460ff6101008204811615156020840152620100008204811615156040840152630100000090910416151560609091015292915050565b336001600160a01b0386168114801590610ce55750610ce386826129ed565b155b15610d165760405163711bec9160e11b81526001600160a01b03808316600483015287166024820152604401610799565b610d238686868686612aca565b505050505050565b60008381526011602052604080822054905163835dc40b60e01b8152600481018590526001600160a01b03848116602483015290911690819063835dc40b90604401602060405180830381865afa158015610d8a573d6000803e3d6000fd5b505050506040513d601f19601f82011682018060405250810190610dae9190613c1c565b95945050505050565b600081600103610e98576000838152601060205260409020600701805461ff001916610100179081905562010000900460ff168015610e0e57506000838152601060205260409020600701546301000000900460ff165b15610e3c57600083815260106020526040902060070180546002919060ff19166001835b0217905550600190505b836001600160a01b0316837faf49c9f2c598a27f6918ca87eb8058baac5f2f871de5ef13b001f58545e28060848442604051610e8b939291909283529015156020830152604082015260600190565b60405180910390a3610fce565b81600203610f16576000838152601060205260409020600701805463ff00000019166301000000179081905562010000900460ff168015610e0e5750600083815260106020526040902060070154610100900460ff1615610e3c57600083815260106020526040902060070180546002919060ff1916600183610e32565b81600303610f93576000838152601060205260409020600701805462ff000019166201000017908190556301000000900460ff168015610e0e5750600083815260106020526040902060070154610100900460ff1615610e3c57600083815260106020526040902060070180546002919060ff1916600183610e32565b60405162461bcd60e51b815260206004820152601060248201526f4e6f7420616e20417574686f7269747960801b6044820152606401610799565b50505050565b600c546001600160a01b03166324d7806c336040516001600160e01b031960e084901b1681526001600160a01b039091166004820152602401602060405180830381865afa15801561102a573d6000803e3d6000fd5b505050506040513d601f19601f8201168201806040525081019061104e9190613b6d565b61106a5760405162461bcd60e51b815260040161079990613b8a565b600b80546001600160a01b039092166001600160a01b0319928316811790915560078054909216179055565b6000818152600f60209081526040918290206004018054835181840281018401909452808452606093928301828280156106f757602002820191906000526020600020905b8154815260200190600101908083116110db5750505050509050919050565b6060815183511461112b5781518351604051635b05999160e01b815260048101929092526024820152604401610799565b600083516001600160401b038111156111465761114661346a565b60405190808252806020026020018201604052801561116f578160200160208202803683370190505b50905060005b84518110156111be57602080820286010151611199906020808402870101516105da565b8282815181106111ab576111ab613c35565b6020908102919091010152600101611175565b509392505050565b600c546001600160a01b03166324d7806c336040516001600160e01b031960e084901b1681526001600160a01b039091166004820152602401602060405180830381865afa15801561121c573d6000803e3d6000fd5b505050506040513d601f19601f820116820180604052508101906112409190613b6d565b61125c5760405162461bcd60e51b815260040161079990613b8a565b600680546001600160a01b0319166001600160a01b0392909216919091179055565b60008181526010602052604090206002600782015460ff1660048111156112a7576112a7613388565b146112eb5760405162461bcd60e51b815260206004820152601460248201527314995c5d595cdd081b9bdd08185c1c1c9bdd995960621b6044820152606401610799565b600481015460ff16156113b3576005810154600090815260116020526040908190205482546001840154600285015460038601549451632f80af0f60e21b81526001600160a01b039384166004820152918316602483015260448201526064810193909352169063be02bc3c906084016020604051808303816000875af115801561137a573d6000803e3d6000fd5b505050506040513d601f19601f8201168201806040525081019061139e9190613b6d565b5060078101805460ff191660041790556113fc565b80546001820154600283015460038401546040805160208101909152600081526113ec946001600160a01b039081169416929190612a1b565b60078101805460ff191660041790555b60018101548154600554600284015460038501546040516001600160a01b039586169594909416937fc6dd6857b8ac04586ee065e8ee95def9aaebf505c92d9a01be171df17b97798e9261145892908252602082015260400190565b60405180910390a45050565b6114966040518060a0016040528060608152602001606081526020016060815260200160008152602001606081525090565b6000828152600f602052604090819020815160a081019092528054829082906114be90613b33565b80601f01602080910402602001604051908101604052809291908181526020018280546114ea90613b33565b80156115375780601f1061150c57610100808354040283529160200191611537565b820191906000526020600020905b81548152906001019060200180831161151a57829003601f168201915b5050505050815260200160018201805461155090613b33565b80601f016020809104026020016040519081016040528092919081815260200182805461157c90613b33565b80156115c95780601f1061159e576101008083540402835291602001916115c9565b820191906000526020600020905b8154815290600101906020018083116115ac57829003601f168201915b505050505081526020016002820180546115e290613b33565b80601f016020809104026020016040519081016040528092919081815260200182805461160e90613b33565b801561165b5780601f106116305761010080835404028352916020019161165b565b820191906000526020600020905b81548152906001019060200180831161163e57829003601f168201915b5050505050815260200160038201548152602001600482018054806020026020016040519081016040528092919081815260200182805480156116bd57602002820191906000526020600020905b8154815260200190600101908083116116a9575b5050505050815250509050919050565b6000818152600f6020526040902060020180546060919061067e90613b33565b600083815260116020526040908190205490516363319d8d60e01b81526001600160a01b03848116600483015260248201849052606092169081906363319d8d90604401600060405180830381865afa15801561174e573d6000803e3d6000fd5b505050506040513d6000823e601f3d908101601f19168201604052610dae9190810190613c4b565b600c5460009081906001600160a01b03166324d7806c336040516001600160e01b031960e084901b1681526001600160a01b039091166004820152602401602060405180830381865afa1580156117d1573d6000803e3d6000fd5b505050506040513d601f19601f820116820180604052508101906117f59190613b6d565b6118115760405162461bcd60e51b815260040161079990613b8a565b50506004546003549091565b611828338383612b31565b5050565b6009818154811061183c57600080fd5b6000918252602090912001546001600160a01b0316905081565b60008181526010602052604090819020600b548154925163e985e9c560e01b81526001600160a01b0393841660048201523060248201529192169063e985e9c590604401602060405180830381865afa1580156118b7573d6000803e3d6000fd5b505050506040513d601f19601f820116820180604052508101906118db9190613b6d565b8061195f5750600b54600582015460405163020604bf60e21b8152600481019190915230916001600160a01b03169063081812fc90602401602060405180830381865afa158015611930573d6000803e3d6000fd5b505050506040513d601f19601f820116820180604052508101906119549190613cdb565b6001600160a01b0316145b6119be5760405162461bcd60e51b815260206004820152602a60248201527f436f6e7472616374206e6f7420617070726f76656420746f207472616e7366656044820152691c881c1b1bdd0813919560b21b6064820152608401610799565b8054600b5460058301546040516331a9108f60e11b815260048101919091526001600160a01b039283169290911690636352211e90602401602060405180830381865afa158015611a13573d6000803e3d6000fd5b505050506040513d601f19601f82011682018060405250810190611a379190613cdb565b6001600160a01b031614611a895760405162461bcd60e51b8152602060048201526019602482015278139bdd081d1a19481bdddb995c881bd9881d1a19481c1b1bdd603a1b6044820152606401610799565b6002600782015460ff166004811115611aa457611aa4613388565b14611ae85760405162461bcd60e51b815260206004820152601460248201527314995c5d595cdd081b9bdd08185c1c1c9bdd995960621b6044820152606401610799565b6005810154600090815260116020526040908190205482546001840154925163b061ce0560e01b81526001600160a01b0391821660048201529281166024840152169063b061ce05906044016020604051808303816000875af1158015611b53573d6000803e3d6000fd5b505050506040513d601f19601f82011682018060405250810190611b779190613b6d565b50600b54815460018301546005840154604051635c46a7ef60e11b81526001600160a01b03938416600482015291831660248301526044820152608060648201526000608482015291169063b88d4fde9060a401600060405180830381600087803b158015611be557600080fd5b505af1158015611bf9573d6000803e3d6000fd5b50505050600701805460ff1916600417905550565b600082815260116020526040908190205490516309771aed60e41b8152600481018390526060916001600160a01b0316908190639771aed090602401600060405180830381865afa158015611c67573d6000803e3d6000fd5b505050506040513d6000823e601f3d908101601f19168201604052611c8f9190810190613cf8565b949350505050565b80611cca5783611ca733876105da565b1015611cc55760405162461bcd60e51b815260040161079990613d86565b611cf4565b83611cd6838733610d2b565b1015611cf45760405162461bcd60e51b815260040161079990613d86565b80611cfe57600091505b60058054906000611d0e83613dc8565b909155505060055460408051610160810182523381526001600160a01b038616602082015290810187905260608101869052821515608082015260a081018490524260c082015260e081016001815260006020808301829052604080840183905260609384018390528583526010825291829020845181546001600160a01b039182166001600160a01b03199182161783559286015160018381018054929093169190941617905591840151600283015591830151600382015560808301516004808301805492151560ff1993841617905560a0850151600584015560c0850151600684015560e085015160078401805494959194909316918490811115611e1857611e18613388565b0217905550610100828101516007909201805461012085015161014090950151151563010000000263ff00000019951515620100000262ff0000199515159094029490941662ffff00199091161791909117929092161790556000611e7a3390565b6001600160a01b0316827f4595add82735fb552f64748fc031bd6e53c364da7faac5ce52e2ee48c943b7d389898789604051611ed19493929190938452602084019290925215156040830152606082015260800190565b60405180910390a4505050505050565b600082815260116020526040808220549051630447b88d60e51b8152600481018490526001600160a01b039091169081906388f711a0906024015b602060405180830381865afa158015611f39573d6000803e3d6000fd5b505050506040513d601f19601f82011682018060405250810190611c8f9190613c1c565b60008281526011602052604080822054905163145263fd60e31b81526001600160a01b03848116600483015290911690819063a2931fe890602401611f1c565b611fca604051806060016040528060006001600160a01b0316815260200160608152602001606081525090565b600082815260116020908152604091829020825160608101845281546001600160a01b031681526001820180548551818602810186019096528086529194929385810193929083018282801561203f57602002820191906000526020600020905b81548152602001906001019080831161202b575b50505050508152602001600282018054806020026020016040519081016040528092919081815260200182805480156116bd57602002820191906000526020600020908154815260200190600101908083116116a9575050505050815250509050919050565b33600b546040516331a9108f60e11b8152600481018590526001600160a01b039283169290911690636352211e90602401602060405180830381865afa1580156120f3573d6000803e3d6000fd5b505050506040513d601f19601f820116820180604052508101906121179190613cdb565b6001600160a01b0316146121695760405162461bcd60e51b8152602060048201526019602482015278139bdd081d1a19481bdddb995c881bd9881d1a19481c1b1bdd603a1b6044820152606401610799565b6000828152601160205260409020546001600160a01b031663a2931fe8336040516001600160e01b031960e084901b1681526001600160a01b039091166004820152602401602060405180830381865afa1580156121cb573d6000803e3d6000fd5b505050506040513d601f19601f820116820180604052508101906121ef9190613c1c565b6127101461224e5760405162461bcd60e51b815260206004820152602660248201527f5573657220646f6573206e6f742068617665207468652066756c6c206f776e6560448201526503939b434b8160d51b6064820152608401610799565b6005805490600061225e83613dc8565b909155505060055460408051610160810182523381526001600160a01b03841660208201526000918101829052606081019190915260016080820181905260a082018590524260c083015260e0820190815260006020808301829052604080840183905260609384018390528583526010825291829020845181546001600160a01b039182166001600160a01b03199182161783559286015160018381018054929093169190941617905591840151600283015591830151600382015560808301516004808301805492151560ff1993841617905560a0850151600584015560c0850151600684015560e08501516007840180549495919490931691849081111561236b5761236b613388565b0217905550610100828101516007909201805461012085015161014090950151151563010000000263ff00000019951515620100000262ff0000199515159094029490941662ffff0019909116179190911792909216179055806123ce81613dc8565b915060009050336123e0600184613de1565b60408051600080825260208201526001818301526060810188905290517f4595add82735fb552f64748fc031bd6e53c364da7faac5ce52e2ee48c943b7d39181900360800190a4505050565b600c546001600160a01b03166324d7806c336040516001600160e01b031960e084901b1681526001600160a01b039091166004820152602401602060405180830381865afa158015612482573d6000803e3d6000fd5b505050506040513d601f19601f820116820180604052508101906124a69190613b6d565b6124c25760405162461bcd60e51b815260040161079990613b8a565b60005b8251811015612537578181815181106124e0576124e0613c35565b60200260200101516125116124f23390565b85848151811061250457612504613c35565b60200260200101516105da565b101561252f5760405162461bcd60e51b815260040161079990613d86565b6001016124c5565b506004805490600061254883613dc8565b90915550506004805460075460405163af3dd63960e01b815292830182905230602484015290916001600160a01b039091169063af3dd639906044016020604051808303816000875af11580156125a3573d6000803e3d6000fd5b505050506040513d601f19601f820116820180604052508101906125c79190613c1c565b50600a54600754604051630fcb200d60e21b81526001600160a01b0391821660048201526024810184905260606044820152600060648201819052929190911690633f2c8034906084016020604051808303816000875af1158015612630573d6000803e3d6000fd5b505050506040513d601f19601f820116820180604052508101906126549190613cdb565b604080516060810182526001600160a01b038381168252602080830189815283850189905260008881526011835294909420835181546001600160a01b031916931692909217825592518051949550919390926126b8926001850192910190613126565b50604082015180516126d4916002840191602090910190613126565b5090505060005b845181101561273657600f60008683815181106126fa576126fa613c35565b602090810291909101810151825281810192909252604001600090812060040180546001818101835591835292909120909101849055016126db565b50600980546001810182556000919091527f6e1540171b6c0c960b71a7020d9f60077f6af931a8bbf590da0223dacf75c7af0180546001600160a01b0319166001600160a01b0383161790556040517f915708fb7ee5da90b08a28b58664546eae63c0680f363ea2cc38c345f5be2940906127b690869086904290613df4565b60405180910390a150505050565b600c546000906001600160a01b03166324d7806c336040516001600160e01b031960e084901b1681526001600160a01b039091166004820152602401602060405180830381865afa15801561281d573d6000803e3d6000fd5b505050506040513d601f19601f820116820180604052508101906128419190613b6d565b61285d5760405162461bcd60e51b815260040161079990613b8a565b600082116128b95760405162461bcd60e51b815260206004820152602360248201527f546f74616c20737570706c79206d75737420626520677265617465722074686160448201526206e20360ec1b6064820152608401610799565b600380549060006128c983613dc8565b90915550506003546006546040805160208101909152600081526128fa916001600160a01b03169083908690612bc7565b6000818152600f602052604090206129128782613e72565b506000818152600f6020526040902060010161292e8682613e72565b506000818152600f6020526040902060020161294a8582613e72565b506000818152600f6020526040908190206003908101859055549051600d90612974908990613f31565b9081526020016040518091039020866040516129909190613f31565b9081526020016040518091039020819055506003547fa09f8ded7663b6558550b417380d535c092265d90b5415bd6d16d8c95b027d138787866040516129d893929190613f4d565b60405180910390a25050600354949350505050565b6001600160a01b03918216600090815260016020908152604080832093909416825291909152205460ff1690565b336001600160a01b0386168114801590612a3c5750612a3a86826129ed565b155b15612a6d5760405163711bec9160e11b81526001600160a01b03808316600483015287166024820152604401610799565b610d238686868686612c24565b60006001600160e01b03198216636cdb3d1360e11b1480612aab57506001600160e01b031982166303a24d0760e21b145b806105fc57506301ffc9a760e01b6001600160e01b03198316146105fc565b6001600160a01b038416612af457604051632bfa23e760e11b815260006004820152602401610799565b6001600160a01b038516612b1d57604051626a0d4560e21b815260006004820152602401610799565b612b2a8585858585612cb2565b5050505050565b6001600160a01b038216612b5a5760405162ced3e160e81b815260006004820152602401610799565b6001600160a01b03838116600081815260016020908152604080832094871680845294825291829020805460ff191686151590811790915591519182527f17307eab39ab6107e8899845ad3d59bd9653f200f220920489ca2b5937696c31910160405180910390a3505050565b6001600160a01b038416612bf157604051632bfa23e760e11b815260006004820152602401610799565b60408051600180825260208201869052818301908152606082018590526080820190925290610d23600087848487612cb2565b6001600160a01b038416612c4e57604051632bfa23e760e11b815260006004820152602401610799565b6001600160a01b038516612c7757604051626a0d4560e21b815260006004820152602401610799565b60408051600180825260208201869052818301908152606082018590526080820190925290612ca98787848487612cb2565b50505050505050565b612cbe85858585612d05565b6001600160a01b03841615612b2a5782513390600103612cf75760208481015190840151612cf0838989858589612f19565b5050610d23565b610d2381878787878761303d565b8051825114612d345781518151604051635b05999160e01b815260048101929092526024820152604401610799565b3360005b8351811015612e3a576020818102858101820151908501909101516001600160a01b03881615612deb576000828152602081815260408083206001600160a01b038c16845290915290205481811015612dc4576040516303dee4c560e01b81526001600160a01b038a166004820152602481018290526044810183905260648101849052608401610799565b6000838152602081815260408083206001600160a01b038d16845290915290209082900390555b6001600160a01b03871615612e30576000828152602081815260408083206001600160a01b038b16845290915281208054839290612e2a908490613f72565b90915550505b5050600101612d38565b508251600103612ebb5760208301516000906020840151909150856001600160a01b0316876001600160a01b0316846001600160a01b03167fc3d58168c5ae7397731d063d5bbf3d657854427343f4c083240f7aacaa2d0f628585604051612eac929190918252602082015260400190565b60405180910390a45050612b2a565b836001600160a01b0316856001600160a01b0316826001600160a01b03167f4a39dc06d4c0dbc64b70af90fd698a233a518aa5d07e595d983b8c0526c8f7fb8686604051612f0a929190613f85565b60405180910390a45050505050565b6001600160a01b0384163b15610d235760405163f23a6e6160e01b81526001600160a01b0385169063f23a6e6190612f5d9089908990889088908890600401613faa565b6020604051808303816000875af1925050508015612f98575060408051601f3d908101601f19168201909252612f9591810190613fe4565b60015b613001573d808015612fc6576040519150601f19603f3d011682016040523d82523d6000602084013e612fcb565b606091505b508051600003612ff957604051632bfa23e760e11b81526001600160a01b0386166004820152602401610799565b805181602001fd5b6001600160e01b0319811663f23a6e6160e01b14612ca957604051632bfa23e760e11b81526001600160a01b0386166004820152602401610799565b6001600160a01b0384163b15610d235760405163bc197c8160e01b81526001600160a01b0385169063bc197c81906130819089908990889088908890600401614001565b6020604051808303816000875af19250505080156130bc575060408051601f3d908101601f191682019092526130b991810190613fe4565b60015b6130ea573d808015612fc6576040519150601f19603f3d011682016040523d82523d6000602084013e612fcb565b6001600160e01b0319811663bc197c8160e01b14612ca957604051632bfa23e760e11b81526001600160a01b0386166004820152602401610799565b828054828255906000526020600020908101928215613161579160200282015b82811115613161578251825591602001919060010190613146565b5061316d929150613171565b5090565b5b8082111561316d5760008155600101613172565b6001600160a01b038116811461319b57600080fd5b50565b600080604083850312156131b157600080fd5b82356131bc81613186565b946020939093013593505050565b6001600160e01b03198116811461319b57600080fd5b6000602082840312156131f257600080fd5b81356131fd816131ca565b9392505050565b6020808252825182820181905260009190848201906040850190845b818110156132455783516001600160a01b031683529284019291840191600101613220565b50909695505050505050565b60006020828403121561326357600080fd5b5035919050565b60005b8381101561328557818101518382015260200161326d565b50506000910152565b600081518084526132a681602086016020860161326a565b601f01601f19169290920160200192915050565b6020815260006131fd602083018461328e565b6000806000806000608086880312156132e557600080fd5b85356132f081613186565b9450602086013561330081613186565b93506040860135925060608601356001600160401b038082111561332357600080fd5b818801915088601f83011261333757600080fd5b81358181111561334657600080fd5b89602082850101111561335857600080fd5b9699959850939650602001949392505050565b60006020828403121561337d57600080fd5b81356131fd81613186565b634e487b7160e01b600052602160045260246000fd5b600581106133bc57634e487b7160e01b600052602160045260246000fd5b9052565b81516001600160a01b03168152610160810160208301516133ec60208401826001600160a01b03169052565b5060408301516040830152606083015160608301526080830151613414608084018215159052565b5060a083015160a083015260c083015160c083015260e083015161343b60e084018261339e565b506101008381015115159083015261012080840151151590830152610140928301511515929091019190915290565b634e487b7160e01b600052604160045260246000fd5b604051601f8201601f191681016001600160401b03811182821017156134a8576134a861346a565b604052919050565b60006001600160401b038211156134c9576134c961346a565b5060051b60200190565b600082601f8301126134e457600080fd5b813560206134f96134f4836134b0565b613480565b8083825260208201915060208460051b87010193508684111561351b57600080fd5b602086015b848110156135375780358352918301918301613520565b509695505050505050565b600082601f83011261355357600080fd5b81356001600160401b0381111561356c5761356c61346a565b61357f601f8201601f1916602001613480565b81815284602083860101111561359457600080fd5b816020850160208301376000918101602001919091529392505050565b600080600080600060a086880312156135c957600080fd5b85356135d481613186565b945060208601356135e481613186565b935060408601356001600160401b038082111561360057600080fd5b61360c89838a016134d3565b9450606088013591508082111561362257600080fd5b61362e89838a016134d3565b9350608088013591508082111561364457600080fd5b5061365188828901613542565b9150509295509295909350565b60008060006060848603121561367357600080fd5b8335925060208401359150604084013561368c81613186565b809150509250925092565b6000806000606084860312156136ac57600080fd5b83356136b781613186565b95602085013595506040909401359392505050565b60008151808452602080850194506020840160005b838110156136fd578151875295820195908201906001016136e1565b509495945050505050565b6020815260006131fd60208301846136cc565b6000806040838503121561372e57600080fd5b82356001600160401b038082111561374557600080fd5b818501915085601f83011261375957600080fd5b813560206137696134f4836134b0565b82815260059290921b8401810191818101908984111561378857600080fd5b948201945b838610156137af5785356137a081613186565b8252948201949082019061378d565b965050860135925050808211156137c557600080fd5b506137d2858286016134d3565b9150509250929050565b602081526000825160a060208401526137f860c084018261328e565b90506020840151601f1980858403016040860152613816838361328e565b92506040860151915080858403016060860152613833838361328e565b92506060860151608086015260808601519150808584030160a086015250610dae82826136cc565b60008060006060848603121561387057600080fd5b83359250602084013561388281613186565b929592945050506040919091013590565b801515811461319b57600080fd5b600080604083850312156138b457600080fd5b82356138bf81613186565b915060208301356138cf81613893565b809150509250929050565b600080604083850312156138ed57600080fd5b50508035926020909101359150565b600080600080600060a0868803121561391457600080fd5b8535945060208601359350604086013561392d81613186565b925060608601359150608086013561394481613893565b809150509295509295909350565b6000806040838503121561396557600080fd5b8235915060208301356138cf81613186565b602080825282516001600160a01b031682820152820151606060408301526000906139a560808401826136cc565b90506040840151601f19848303016060850152610dae82826136cc565b600080604083850312156139d557600080fd5b82356001600160401b03808211156139ec57600080fd5b6139f8868387016134d3565b935060208501359150808211156137c557600080fd5b60008060008060808587031215613a2457600080fd5b84356001600160401b0380821115613a3b57600080fd5b613a4788838901613542565b95506020870135915080821115613a5d57600080fd5b613a6988838901613542565b94506040870135915080821115613a7f57600080fd5b50613a8c87828801613542565b949793965093946060013593505050565b60008060408385031215613ab057600080fd5b8235613abb81613186565b915060208301356138cf81613186565b600080600080600060a08688031215613ae357600080fd5b8535613aee81613186565b94506020860135613afe81613186565b9350604086013592506060860135915060808601356001600160401b03811115613b2757600080fd5b61365188828901613542565b600181811c90821680613b4757607f821691505b602082108103613b6757634e487b7160e01b600052602260045260246000fd5b50919050565b600060208284031215613b7f57600080fd5b81516131fd81613893565b6020808252601c908201527f4c616e644d616e6167656d656e743a204e6f7420616e2061646d696e00000000604082015260600190565b600081548084526020808501945083600052602060002060005b838110156136fd57815487529582019560019182019101613bdb565b604081526000613c0a6040830185613bc1565b8281036020840152610dae8185613bc1565b600060208284031215613c2e57600080fd5b5051919050565b634e487b7160e01b600052603260045260246000fd5b60006020808385031215613c5e57600080fd5b82516001600160401b03811115613c7457600080fd5b8301601f81018513613c8557600080fd5b8051613c936134f4826134b0565b81815260059190911b82018301908381019087831115613cb257600080fd5b928401925b82841015613cd057835182529284019290840190613cb7565b979650505050505050565b600060208284031215613ced57600080fd5b81516131fd81613186565b60006020808385031215613d0b57600080fd5b82516001600160401b03811115613d2157600080fd5b8301601f81018513613d3257600080fd5b8051613d406134f4826134b0565b81815260059190911b82018301908381019087831115613d5f57600080fd5b928401925b82841015613cd0578351613d7781613186565b82529284019290840190613d64565b6020808252601290820152714e6f7420656e6f7567682062616c616e636560701b604082015260600190565b634e487b7160e01b600052601160045260246000fd5b600060018201613dda57613dda613db2565b5060010190565b818103818111156105fc576105fc613db2565b606081526000613e0760608301866136cc565b8281036020840152613e1981866136cc565b915050826040830152949350505050565b601f821115610a66576000816000526020600020601f850160051c81016020861015613e535750805b601f850160051c820191505b81811015610d2357828155600101613e5f565b81516001600160401b03811115613e8b57613e8b61346a565b613e9f81613e998454613b33565b84613e2a565b602080601f831160018114613ed45760008415613ebc5750858301515b600019600386901b1c1916600185901b178555610d23565b600085815260208120601f198616915b82811015613f0357888601518255948401946001909101908401613ee4565b5085821015613f215787850151600019600388901b60f8161c191681555b5050505050600190811b01905550565b60008251613f4381846020870161326a565b9190910192915050565b606081526000613f60606083018661328e565b8281036020840152613e19818661328e565b808201808211156105fc576105fc613db2565b604081526000613f9860408301856136cc565b8281036020840152610dae81856136cc565b6001600160a01b03868116825285166020820152604081018490526060810183905260a060808201819052600090613cd09083018461328e565b600060208284031215613ff657600080fd5b81516131fd816131ca565b6001600160a01b0386811682528516602082015260a06040820181905260009061402d908301866136cc565b828103606084015261403f81866136cc565b90508281036080840152614053818561328e565b9897505050505050505056fea26469706673582212204da2b9c8fa4b9b888fda6c6bc26393f8b3932a17c07c9c07ec6727eb76f116e564736f6c63430008190033",
  "linkReferences": {},
  "deployedLinkReferences": {}
}